:020000040800F2
:10000000C0390020C1010008730E0008C1060008B5
:10001000710E0008BD020008B14400080000000095
:100020000000000000000000000000000D150008A6
:10003000B503000800000000110F0008E5150008D6
:10004000DB010008DB010008DB010008DB01000820
:10005000DB010008DB010008DB010008DB01000810
:10006000DB010008DB010008DB010008DB01000800
:10007000DB010008DB010008DB010008DB010008F0
:10008000DB010008DB010008DB010008DB010008E0
:10009000DB010008DB010008DB010008DB010008D0
:1000A000DB010008DB010008DB010008DB010008C0
:1000B00045160008DB010008DB010008DB01000831
:1000C000DB010008DB010008DB010008DB010008A0
:1000D000DB010008DB010008DB010008DB01000890
:1000E000DB010008DB010008DB010008DB01000880
:1000F000DB010008DB010008DB010008DB01000870
:10010000DB010008DB010008DB010008DB0100085F
:10011000DB010008DB01000859160008DB010008BC
:10012000DB010008DB010008DB010008DB0100083F
:10013000DB010008DB010008DB010008DB0100082F
:10014000DB010008DB010008DB010008DB0100081F
:10015000DB010008DB010008DB010008DB0100080F
:10016000DB010008DB010008DB010008DB010008FF
:10017000DB010008050F0008DB010008DB010008B7
:10018000DB010008DB010008DB010008DB010008DF
:10019000DB010008DB010008DB010008DB010008CF
:1001A000DB010008DB010008DB010008DFF80CD0F0
:1001B00000F02AF8004800470D4B0008C039002025
:1001C0000648804706480047FEE7FEE7FEE7FEE7F1
:1001D000FEE7FEE7FEE7FEE7FEE7FEE7E9150008BB
:1001E000AD01000840EA01039B0703D009E008C9FC
:1001F000121F08C0042AFAD203E011F8013B00F8EC
:10020000013B521EF9D27047064C074D06E0E068EC
:1002100040F0010394E8070098471034AC42F6D34D
:10022000FFF7C8FF207E0008407E000810B5074C8D
:100230002060084600F00CF820680028FCD1BDE8DA
:10024000104000214FF0804001F03FBA3C000020F8
:100250003EB504464FF080450021284601F035FAAE
:1002600000220121284601F048FA022C02D0012C7C
:1002700003D005E00B20019002E042F6DF60019020
:100280000520ADF800000020ADF80800ADF8020030
:100290006946284601F05CFA0121284601F012FA6D
:1002A0000121284601F0FFF901221146284601F0FC
:1002B00024FA0121284601F008FA3EBDFEE710B5F8
:1002C0000121CC05204600F05DFE2046BDE810402F
:1002D000002100F057BE000001460020024A52688B
:1002E0000A4200D00120704700B0024030B500241F
:1002F0002A4B19682A4A114019601968026811438B
:100300001960596B21F007015963596B4268114319
:1003100059634168002928D001292DD0022930D005
:10032000032933D0C1680A01016909024469240321
:100330008568214315430D43996B0D439D63816986
:10034000D963196C6FF30D011964196CC2691143FB
:100350001964818C09045A6C02F040425A645A6C48
:10036000006A02430A435A6430BDC1680A02018A26
:100370000904047D2406DBE7C1680A02018A090436
:10038000D6E7C1684A010169C902D1E7C1684A01DB
:10039000016989024469E403CAE7000000B0024031
:1003A000FCE0FCFF0248016841F001010160704778
:1003B00000B00240704701B502E00098401E009076
:1003C00000980028F9D108BD00224FF020431028E2
:1003D0000AD0B0F5807F09D0B0F5805F09D0D3F89E
:1003E0005801814309D107E0586EFAE7D3F8840039
:1003F000F7E7D3F8A400F4E70122104670470000A5
:10040000D0E9001211438268C068521E520142EACC
:10041000402001430148016070470000500100A0E6
:1004200070B50468A100A1F1C041D1F84011CE0B14
:10043000F603D0E901121143D0E903231A43114313
:100440004269C36911438269056A11431943426ACB
:100450002943114331434FF02046002C3CD0D6F8BD
:1004600040416FF30E042B4322431343C6F840313F
:1004700002689200A2F1C042C2F84011016871B353
:100480008900A1F1C041D1F8481101F07043816A9F
:100490000A684C68521E641E42EA04148A68521E9E
:1004A00044EA02240A8A521E44EA02421A43D6F857
:1004B000483103F07043CC68898A641E2403491EC6
:1004C00044EA01511943C6F8481100688000A0F1C0
:1004D000C040C0F8482170BDC6F84011CEE7FFE724
:1004E000D6F8481101F07041806A02684368521ED4
:1004F0005B1E42EA03138268521E43EA0223C2686B
:10050000521E43EA0233028A521E43EA0243828A9F
:10051000007E521E43EA0252401E42EA0060084337
:10052000C6F8480170BD000002490A6842EA40006E
:1005300008607047540100A01CB5012140F2A710CB
:1005400000F012FD4FF40050009001208DF80400DF
:1005500002208DF8050000208DF80600694602484B
:1005600000F004F81CBD0000000402402DE9F04139
:10057000002201274FF0030C07FA02F50B682B400D
:10058000AB422CD1066853000CFA03F4A643066074
:100590000E79D0F800809E4046EA080606600E7983
:1005A000012E01D0022E12D18668A64386604E79B4
:1005B000D0F808809E4046EA080686604668AE434A
:1005C000466045688E799640B6B235434560C56849
:1005D000A543C560CC799C40C3681C43C460521CD1
:1005E000102AC9D3BDE8F08110B54B07DB0E9A4045
:1005F000C90800EB8100016A0F249C40A1430162FD
:10060000016A1143016210BD01837047034A20391A
:1006100002EB01111022FFF7E5BD00002E78000863
:100620004069806880B27047D0F8CC000068C0F3A1
:1006300041407047084490F89B03704700EB8100ED
:10064000D0F85003704710B5044600220023C4F8C8
:10065000103304EB8200C0F81433C0F85033A018F4
:1006600080F88C33521CD2B20F2AF2D30820A4F89F
:10067000B203204602F0A2FF204602F031FD2046E0
:1006800002F052FC0121204602F0FAFF204602F05F
:100690009FFC204602F05EFD002010BDD0F8100344
:1006A000704710B502F073FF002010BD0022431800
:1006B00083F89B2300EB4113C3F8C02302F0A0BED4
:1006C000FEE7000010B500231C4C2468002C06D067
:1006D000012C0DD0022C17D0032C1ED023E000EBF0
:1006E0004003C1EB011000EB400003EB40131AE0A4
:1006F000A1F20F11C0F5F070A1EB011100EB411058
:10070000401E00EB40030EE0A0F20F10A0EB001023
:1007100001EB401000EB400305E000EB0010C1EBE3
:10072000001303F20F130648834205D20548806880
:10073000C2521844110C817010BD00003800002016
:1007400000FA05001000002070B58AB0C0F307441D
:10075000C0F30725C6B2FFF7B2FD4FF4403000905A
:10076000012001900494039502960F2005900B48F8
:1007700080680690002007904FF4887008904FF42E
:10078000F07009906846FFF7B1FDFFF70BFE0220FD
:10079000FFF7A2FD0028FAD00AB070BD10000020BB
:1007A0002DE9FC5F012140F2FF1000F0DDFB042089
:1007B000009003208DF8050002208DF8040000262B
:1007C0008DF806608DF80760DFF8B882694640460C
:1007D000FFF7CCFE0E2202214046FFF705FF4FF047
:1007E000080ACDF800A069464046FFF7BFFE0E227A
:1007F00003214046FFF7F8FE4FF4807BCDF800B0B0
:1008000069464046FFF7B2FE0E2208214046FFF738
:10081000EBFE0124009469469B48FFF7A7FE0922DE
:1008200000219948FFF7E0FEA50200956946404681
:10083000FFF79CFE0E220A214046FFF7D5FEE0029C
:10084000009069464046FFF791FE0E220B2140467C
:10085000FFF7CAFE0220009069468B48FFF786FE2C
:10086000092201218848FFF7BFFE4027009769460B
:100870008648FFF77BFE0E2206218448FFF7B4FE70
:100880002020009069468248FFF770FE0E22052165
:100890007F48FFF7A9FE009769467D48FFF766FE8F
:1008A0000E2206217A48FFF79FFE600300906946FA
:1008B0004046FFF75BFE0E220D214046FFF794FEF7
:1008C000009569467148FFF751FE09220A216F48D9
:1008D000FFF78AFEE003009069464046FFF746FEB8
:1008E0000E220F214046FFF77FFE009469466948BB
:1008F000FFF73CFE0E2200216648FFF775FE4FF021
:100900008008CDF80080DFF8909169464846FFF7EF
:100910002DFE0E2207214846FFF766FE04200090B8
:1009200069465C48FFF722FE0E2202215948FFF774
:100930005BFE4FF01009CDF8009069465448FFF770
:1009400015FE0E2204215248FFF74EFE20030090B0
:1009500069464E48FFF70AFE0E220C214B48FFF76E
:1009600043FE00974D4F69463846FFF7FFFD0E22C4
:1009700006213846FFF738FEE002009069464348FA
:10098000FFF7F4FD0E220B214048FFF72DFECDF8B6
:10099000009069463F48FFF7E9FD0E2204213D48DB
:1009A000FFF722FECDF800A0DFF8F4A0694650461C
:1009B000FFF7DCFD0E2203215046FFF715FECDF8B0
:1009C00000B069463048FFF7D1FD0E2208212E48BD
:1009D000FFF70AFE4FF4007ACDF800A069462A48D6
:1009E000FFF7C4FD0E2209212748FFF7FDFDCDF8D2
:1009F000008069462548FFF7B9FD0E2207212348EC
:100A0000FFF7F2FD009569462248FFF7AFFD0E2281
:100A10000A212048FFF7E8FDCDF800A069461D48EF
:100A2000FFF7A4FD0E2209211A48FFF7DDFD00950E
:100A30001C4D69462846FFF799FD0E220A212846DB
:100A4000FFF7D2FDCDF8009002208DF805008DF85B
:100A500004408DF806608DF8074069463846FFF778
:100A600085FDCDF8008069463846FFF77FFD1021EF
:100A70003846FFF7C9FD80213846FFF7C5FDBDE8C0
:100A8000FC9F0000001C02400004024000180240CD
:100A9000001002400020024000080240000C02400A
:100AA000000002400014024000B58FB0012188060A
:100AB00000F092FA0121C80500F056FAFFF770FE27
:100AC00000F090FC062207214FF4967000F0BEFA69
:100AD0004FF4803000F0AAFA012000F0B1FA3D2076
:100AE00000F088FA0028FAD00020009001900290CF
:100AF00003900C900D900E90049005902E2006907F
:100B00001720079040F20E20089040F2271009901D
:100B10004FF409700A9040F23D100B90684600F0C7
:100B2000F3F8012000F0E0F80FB000BD10B590B070
:100B30002F20009040F20E2001901820029040F2E9
:100B40002710039001200490FF2005900690079045
:100B50000890099007200B9040F2A3500D90C01E02
:100B60000E904FF488700F900C480C904FF4C060BA
:100B70000A900B4C6946204600F028F9012000F04D
:100B800071F90121204600F015F9012000F06AF901
:100B9000044800F009F810B010BD000000FA05D0BC
:100BA000046901402C0000200149086170470000E1
:100BB000100000200649002804D006488860012063
:100BC000C86070474FF0504088600020C860704790
:100BD0001000002000FA05D010B50949C9680029A5
:100BE00008D00146074800F0E3F8BDE810400120B6
:100BF00000F038B901460348803800F0D9F8F4E72E
:100C000010000020046901402DE9F04F0446884699
:100C10002546334902EB0210DFF8C8A001EB40097A
:100C2000002B0FD0002709EB070090F802B0002638
:100C30005FEA0B6035D541462046DAF80020FFF721
:100C400041FD34E04FF0000B09EB0B0087780026E4
:100C5000380606D541462046DAF80020FFF732FD77
:100C600005E041462046DAF80420FFF72BFD780620
:100C7000070E641CA4B2601B10280CD0761CF6B2C0
:100C8000082EE5D30BF1010B0BF0FF0BBBF1200F8E
:100C9000DAD3BDE8F08F2C4608F101081FFA88F876
:100CA000F0E741462046DAF80420FFF70BFD4FEA53
:100CB0004B604FEA106B641CA4B2601B102808D074
:100CC000761CF6B2082EB3D37F1CFFB2202FAAD316
:100CD000DFE72C4608F101081FFA88F8F4E7000066
:100CE000004D0008240000200649002804D00868B0
:100CF00040F0010008607047086820F001000860BB
:100D0000704700001868014030B5264A136826492C
:100D10000B401360038A1B04146845692C431C4371
:100D20001460121D13680B401360038B1B041468BE
:100D3000C5692C431C431460121D13680B401360DB
:100D4000038C1B041468456A2C431C431460121D59
:100D500013680B401360018D09041368C46A2343B0
:100D60000B431360111D0A68104B1A400A60D0E94A
:100D700000231A43D0E9023423431A430B681A4371
:100D80000A60416B0A02018E0B04064924310C688B
:100D900004F07F440C600C68806B134304431C43D5
:100DA0000C6030BD0868014000F800F08F88FE0F2D
:100DB00041617047002904D0016841F001010160E0
:100DC0007047016821F001010160704770B58A88A1
:100DD0001204436803F4704343600B681343436099
:100DE0008A891204836803F4704383608B68134319
:100DF0008360026922F0070202610A690261CA691E
:100E000013020A8C120491F82440240685690025F7
:100E100085618E6922431E4316438661426922F032
:100E2000FF0242614A694261C26940F207739A4314
:100E3000C261D1E90A231A43C261826A85620A6BE0
:100E400082620A8F1204C36A03F0E023C3624B6B11
:100E50001343C362026B6FF30A020263C96B01633F
:100E600070BD00000149086070470000246801401F
:100E7000FEE7704730B50F23C27801250178002ABC
:100E80001FD0154A126802F4E062C2F5E062C2F3B4
:100E90000722C2F10404D3404278A24084781C4067
:100EA0001443220101F1E02181F80024007800F0D0
:100EB0001F018D404009800000F1E020C0F8005182
:100EC00030BD01F01F0085404809800000F1E0209E
:100ED000C0F8805130BD00000CED00E0024908432D
:100EE00002490860704700000000FA050CED00E0C0
:100EF000024A1140014302480160704780FFFF1F12
:100F000008ED00E0014801F009BD0000242900209F
:100F100070472DE9FF5F8946074611469B466846A4
:100F2000FFF774FB0025EA461AF80580002409EB58
:100F30000506C4F1070028FA00F0C00706D03819EA
:100F4000B1B280B25A46FFF7BDFB05E03819B1B225
:100F500080B20E9AFFF7B6FB641C082CE9D36D1C17
:100F6000102DE1D3BDE8FF9F054A002903D0116889
:100F700001431160704711688143116070470000A0
:100F800030380240054A002903D01168014311603E
:100F900070471168814311607047000010380240AB
:100FA000054A002903D01168014311607047116898
:100FB000814311607047000038380240054A00291B
:100FC00003D01168014311607047116881431160BB
:100FD0007047000040380240054A002903D01168DC
:100FE0000143116070471168814311607047000030
:100FF0004438024002460020510901290BD0022941
:101000000DD00949096802F01F02012393400B42E9
:1010100000D001207047044974390968F3E7024998
:10102000091F0968EFE7000074380240034A11689D
:1010300021F4403101431160704700008C380240B8
:10104000014908677047000000004742800140EAFC
:101050000160024940EA0270086070478838024027
:101060002DE9FC5F0121FC20FFF77EFF02208DF8B7
:1010700004008DF8050000208DF806008DF80700AB
:10108000012000906946D148FFF770FA0C22002138
:10109000CE48FFF7A9FA022000906946CB48FFF737
:1010A00065FA0C220121C948FFF79EFA042000903E
:1010B0006946C648FFF75AFA0C220221C348FFF7D7
:1010C00093FA082000906946C048FFF74FFA0C22B7
:1010D0000321BE48FFF788FA102700976946BB48EE
:1010E000FFF744FA0C220421B848FFF77DFA4FF0CD
:1010F0002008CDF800806946B448FFF737FA0C2283
:101100000521B248FFF770FA4FF48059CDF80090EE
:101110006946AE48FFF72AFA0C221146AB48FFF7A2
:1011200063FA4FF4005ACDF800A06946A748FFF7CC
:101130001DFA0C220D21A548FFF756FABD020095B5
:101140006946A248FFF712FA0C220E219F48FFF7CA
:101150004BFA6C00009469469C48FFF707FA0C2292
:101160000F219A48FFF740FA0120009069469848FD
:10117000FFF7FCF90C2200219548FFF735FA022011
:10118000009069469248FFF7F1F90C22012190483E
:10119000FFF72AFA009569468E48FFF7E7F90C2217
:1011A0000E218C48FFF720FA009469468948FFF722
:1011B000DDF90C220F218748FFF716FA0120009075
:1011C00069468448FFF7D2F90C2200218148FFF7D5
:1011D0000BFA0220009069467E48FFF7C7F90C22FF
:1011E00001217C48FFF700FA4FF0800BCDF800B0EA
:1011F00069467948FFF7BAF90C2207217648FFF7CC
:10120000F3F9E611009669467348FFF7AFF90C222F
:1012100008217148FFF7E8F9A011009069466E486F
:10122000FFF7A4F90C2209216B48FFF7DDF96011E3
:10123000009069466848FFF799F90C220A21664830
:10124000FFF7D2F92011009069466348FFF78EF945
:101250000C220B216048FFF7C7F9CDF800906946D2
:101260005D48FFF783F90C2211465B48FFF7BCF994
:10127000CDF800A069465848FFF778F90C220D21F7
:101280005548FFF7B1F9009569465348FFF76EF9E5
:101290000C220E215048FFF7A7F9009469464E48EA
:1012A000FFF764F90C220F214B48FFF79DF90096D8
:1012B00069464848FFF75AF90C2208214548FFF7CC
:1012C00093F9A011009069464248FFF74FF90C22AC
:1012D00009214048FFF788F96011009069463D48B0
:1012E000FFF744F90C220A213A48FFF77DF9402024
:1012F00000903A4D69462846FFF738F90C2206213E
:101300002846FFF771F9009769463148FFF72EF933
:101310000C2204212E48FFF767F9CDF800806946BA
:101320002B48FFF723F90C2205212948FFF75CF928
:10133000012000902A4F69463846FFF717F90C2222
:1013400000213846FFF750F92011009069461F48E8
:10135000FFF70CF90C220B211C48FFF745F900940C
:1013600069461B48FFF702F90C220F211848FFF7C6
:101370003BF9009669461648FFF7F8F80C22082159
:101380001348FFF731F9CDF800B069462846FFF75A
:10139000EDF80C2207212846FFF726F902200090DD
:1013A00069460D48FFF7E2F80C2201210A48FFF7D1
:1013B0001BF90120009069460748FFF7D7F80C2277
:1013C00000210548FFF710F9BDE8FC9F001402401A
:1013D00000180240000C024000100240001C0240B5
:1013E0000008024000B593B0FFF73AFE012108461D
:1013F000FFF7D6FD022001900722029204210391FB
:101400000492059006900790012008900020099012
:101410000A9110210B9140210C914FF4C0710D9154
:101420000E90C9000F9110904FF40050119001A838
:10143000129008A8FEF7F4FF00F002F813B000BD08
:101440002DE9FF410125009508260196029500240B
:10145000039420210120FEF7B7FF0028F9D1684648
:10146000FEF7CEFF0A2000F041F80220009001961E
:101470000295039420210120FEF7A6FF0028F9D150
:101480006846FEF7BDFF03200090019604270297EF
:10149000039420210120FEF797FF0028F9D1684628
:1014A000FEF7AEFF20210120FEF78EFF0028F9D1C4
:1014B0006846FEF7A5FF40F231200097019602959D
:1014C000039020210120FEF77FFF0028F9D1684614
:1014D000FEF796FF40F26A50FFF726F82021012020
:1014E000FEF772FF0028F9D1BDE8FF8101B581B098
:1014F000054901984843009002E00098401E009082
:1015000000980028F9D10CBDA086010070470000AA
:101510001CB50021019100912E4A106840F48030E2
:1015200010604FF4A043106800F400300090019860
:10153000401C0190009810B901989842F3D11068AE
:10154000800302D50120009000E00091009801285E
:101550003FD120484030016841F0805101601E4970
:10156000086840F4404008601A4808300368036087
:10157000036843F400430360036843F4A05303602B
:10158000041F164B2360136843F0807313601368C5
:101590009B01FCD50A6842F480320A604A68D20393
:1015A000FCD50A6842F400320A604A689203FCD50E
:1015B0000B4A40F205711160016821F003010160DE
:1015C000016841F0020101600168C1F38101022953
:1015D000FAD11CBD00380240007000401954400789
:1015E000003C02407047000010B51248016841F409
:1015F000700101601048016841F0010101600E4A6C
:1016000000210832116002680C4B1A400260031D71
:101610000B4A1A60026822F48022026006480C30ED
:101620000160FFF775FF03494FF0006080390860E3
:1016300010BD000088ED00E000380240FFFFF6FE1C
:101640001030002401F04EBC10B500F017F8BDE8D2
:10165000104000F05DB8000010B5074C0121204695
:1016600000F03FF8002805D02046BDE810400121D9
:1016700000F028B810BD00000010004008B54FF47D
:10168000C060FFF72BFC36208DF8000002208DF89B
:10169000010003208DF8020001208DF80300684648
:1016A000FFF7E8FB08BD002904D0018841F0800164
:1016B00001807047018821F0800101807047C94393
:1016C00001827047C94301827047002904D0018814
:1016D00041F0010101807047018821F00101018082
:1016E000704702460020138A0B4092890A40002B63
:1016F00002D0002A00D001207047002A03D082893E
:101700000A438281704782898A4382817047000040
:101710003EB501211020FFF751FC6320019042F2F9
:101720002730ADF80000094C6946204600F010F85B
:1017300001212046FFF7C3FF012211462046FFF793
:10174000DCFF01212046FFF7C0FF3EBD0010004036
:1017500030B50288164C174DA0420DD0A8420BD0D0
:10176000B0F1804F08D0144B984205D0134B9842EB
:1017700002D0134B984203D122F070034A881A43D7
:10178000104B984206D0104B984203D022F440737D
:101790000A891A4302804A68C2620A880285A04206
:1017A00001D0A84201D1897A01860121818230BD10
:1017B0000000014000040140000400400008004017
:1017C000000C0040001000400014004070B50446BA
:1017D0000D46204600F02CF9A0F57F42FF3A05D0D7
:1017E00004EB400245F40041A2F88C15C0B270BD74
:1017F00070B50D46194600EB4114012384F8AE3351
:10180000C4F8B853C4F8BC2394F8C423002A06D003
:10181000022284F8B423FEF749FF002070BD0022A5
:1018200084F8B423F7E770B50D46194600EB411470
:10183000002384F8AE33C4F8B853C4F8BC2394F83A
:10184000C523002A06D0022284F8B423FEF72EFF17
:10185000002070BD84F8B433F8E730B402240C756E
:1018600001244C750024CC820A834C83150600EBBE
:10187000431202D582F8C44301E082F8C543002335
:1018800030BC1A4600F017B80121C0F81013002030
:10189000704770B50D46194600EB411404F56C74A1
:1018A000012304F8023C02232371A560E260FEF7E5
:1018B000FDFE002070BD70B50C4611461A4601258C
:1018C000E078012802D0022819D105E0204601F075
:1018D0006CFA0220E07012E0207F01210D2804D074
:1018E0000B2807D00C2808D009E0E17000202077F1
:1018F000002504E0E170022501E0E170032528469F
:1019000070BD70B50D46194600EB4114002384F8F4
:10191000AE33C4F8B853C4F8BC23002A02D1012264
:1019200084F8C52394F8C52332B1022284F8B42385
:10193000FEF7BCFE002070BD84F8B433F8E710B5A4
:101940000C46114600EB411303F56C73002203F8BB
:10195000022C03221A719C600822DA60FEF7A6FEB0
:10196000C0B210BD0221002200EB4103A3F88C2578
:10197000491CC9B20829F7D30020704770B5054645
:101980000C46002121706170A1700122E270227763
:101990004020A07184F8201084F821202179284665
:1019A00000F021F86179284600F01DF8002070BD94
:1019B0000021C0F810130020704770B504460A25B6
:1019C00005290AD0042908D006290BD12570D4F89E
:1019D00080000068BDE870400047D4F88000406C8B
:1019E0008047257070BD082907D200EB4100B0F890
:1019F0008C15C1F30E01A0F88C150020704730B48F
:101A0000DDE9025442F080020A7506224A75CB8253
:101A10000322B2EB132F03D140F209420A8301E003
:101A200000220A834C8323462A4630BCFFF743BF7B
:101A30000146002001EB4002B2F88C25120405D5C6
:101A4000401CC0B20828F5D34FF6FF7070470A88D3
:101A500003781A440A800178084470472DE9FC474E
:101A600006460F461546002406F58878CDE9008520
:101A70004FF40073002239463046FFF7C0FFB0F143
:101A8000000913D10B4805E0311991F810110155E7
:101A9000641CA4B2AC42F7D3434607F1500207F1ED
:101AA0003E0107F13400009500F0B4FF4846BDE860
:101AB000FC870000542F00202DE9FC410E461546FE
:101AC00000F588744FF4807300223146CDE900455B
:101AD000FFF795FF071E05D12A46214606F1220091
:101AE00001F01AF83846BDE8FC812DE9FC411E469C
:101AF000089D00F5887442F440730022CDE900454A
:101B0000FFF77DFF071E04D12A463146204601F02B
:101B100052F83846BDE8FC812DE9F05F80460C465E
:101B200000270020A074207F0B2509260121DFF863
:101B3000E4914FF0080B4FF0050A0C280FD2DFE8B4
:101B400000F0E6060F3B445F6D8790B3C5D962791C
:101B500004F114014046FFF7F2FE02202077D6E0A0
:101B600061794046FEF766FD012802D003281FD0A8
:101B7000CDE0207D00F08000618B59B141F28831C9
:101B8000A9F80010802802D084F81CA009E00320E6
:101B9000207706E03221A9F80010802806D007201F
:101BA00020774046FEF73CFD2082B0E02677F8E73C
:101BB000257784F812A0AAE02379A2894046A1687B
:101BC000FFF767FE04202077A1E021794046FEF769
:101BD00031FD012800D1267704280CD003280DD030
:101BE0004046FEF71DFD218A401AB9F800108842D0
:101BF00000D925778BE06078207088E0257786E033
:101C0000607908EB401080F8C5136379A2894046DB
:101C1000A168FFF776FE0620207778E061794046DC
:101C2000FEF708FD012806D0042807D002280AD0B4
:101C300003280BD06BE00720207768E060782070E5
:101C40000C20207763E084F81CA060E025775EE03C
:101C50000022237911464046FFF71BFE84F81CB092
:101C600055E021794046FEF7E5FC0646012E0CD0F2
:101C7000032E0FD04046FEF7D3FC218A401AB9F854
:101C80000010884208D9257741E0607820700D2047
:101C900020773CE025773AE0042E38D16078207038
:101CA0000420A074032732E0607908EB401090F81C
:101CB000C51381F0010180F8C51300226379114634
:101CC0004046FFF71EFE0A20207720E0617940465B
:101CD000FEF7B0FC012804D0022807D0032807D063
:101CE00015E0607820700D20207710E026770EE058
:101CF00025770CE0A07B401CC0B2A073022801D85D
:101D0000217704E084F812B060782070022738460A
:101D1000BDE8F09F9C0000202DE9F04192B00746FD
:101D20000C460126A1780025FF204FF001080A2962
:101D300027D2DFE801F00527375B657992ABC4CE87
:101D4000082221463846FFF7B7FE002819D194F83B
:101D50002900A0713846FEF7A4FC84F80280A0791F
:101D60000023CDE9005061791A46384600F0BCFDE9
:101D7000A0790023CDE9005021791A46384600F0B9
:101D8000B3FDA7E0122221463846FFF795FE002852
:101D9000F7D1D4F88000C16904F1220088470220FD
:101DA000A07097E001222146384600F0E6FF0028A7
:101DB0001BD1022001F0B2F8A41C84F81E80D4F8D4
:101DC0007E00006A80470320207000950195A27F65
:101DD000A1780023384600F087FD00950195A27F89
:101DE000E1780023384600F07FFD73E009222146A8
:101DF0003846FFF733FE00286CD10420A07069E05C
:101E0000E28E21463846FFF729FE002862D1D4F839
:101E1000800004F1500204F13E01436A04F13400F1
:101E200098470520A07055E094F8302006256AB147
:101E3000009002AB21463846FFF757FE28BBD4F886
:101E40008000816A02A88847A57043E0D4F880002A
:101E5000816A22A08847A5703CE094F831200725CC
:101E60006AB1009002AB21463846FFF73EFE60B9EA
:101E7000D4F88000C16A02A88847A5702AE0D4F887
:101E80008000C16A15A08847A57023E094F832202D
:101E900008256AB1009002AB21463846FFF725FEBF
:101EA000C0B9D4F88000016B02A88847A57011E082
:101EB000D4F88000016B09A08847A5700AE094F867
:101EC00039202146384600F064FF18B90920A07077
:101ED00000E0002612B03046BDE8F0814E2F4100F0
:101EE0002DE9F0410746069E884614461D463846B1
:101EF00000F0B6FF002000F095FF21463846FFF7BE
:101F00003DFD44F87C5F666041463846FEF79BFB2A
:101F10006068016888473846BDE8F04100F08BBF33
:101F200021220A75FF224A750022CA820A834A8347
:101F300000231A46FFF7BFBC70B5044601200C4DC4
:101F4000002A02D0012A0BD105E02B78EA7820463E
:101F5000FFF783FC04E06B78AA782046FFF77DFC4E
:101F6000044A1169491C1161042900D9042070BD7B
:101F700094310020A400002001490020087070471F
:101F80008431002070B5054601242846FEF786FB03
:101F9000F8B1124801782846FEF750FB0D2801D011
:101FA000022416E00E480F4A0168914210D1A0F1B8
:101FB00020024168526891420BD1007B20B1012878
:101FC00007D0022802D004E0002402E0022400E04E
:101FD000022403481030C473204670BD94310020A1
:101FE00074310020555342530A490A22012803D074
:101FF000022800D10A707047074B1878401CC0B205
:1020000018700A2804D2062008700120C870704792
:102010000A70704784310020B8000020A1220A75A0
:10202000FE224A750022CA820A8301224A830123C2
:10203000014AFFF740BC00009C3100202DE9F35F0E
:102040000E4601240098FEF729FB002818D04F4DBA
:10205000DFF83CA14F4F28784FF00008A3464FF01F
:1020600008090B280CD2DFE800F0060C1A4754616F
:102070006E797E398C00009800F0BCF985F800B0CC
:1020800080E031460098FFF74BFF0446022004B978
:102090002870032C76D168700920287072E03146D0
:1020A0000098FFF7BBFF044620004FF0030107D163
:1020B0009AF808008AF8080208B1787818B12970EF
:1020C000032C07D05EE087F801B0D6F88000006CE2
:1020D000804757E069700920287053E07379002227
:1020E00031460098FFF7B9FB044620004AD18AF830
:1020F00008826878287045E0009800F063FB10B112
:10210000FFF772FF3EE00420287087F8008000246B
:1021100038E0009800F0B6FA10B1FFF765FF31E043
:102120000520287087F8008000242BE0009800F03C
:10213000EDF910B1FFF758FF24E085F8009087F81B
:10214000008000241EE0009800F0ECFA10B1FFF7C8
:102150004BFF17E068782870002413E031460098A0
:1021600000F01AF80EE0D6F88000C06B8047C0B2CD
:1021700010B1012803D005E085F8009002E00624A4
:1021800000E004242046BDE8FC9F000084310020CC
:1021900094310020B80000202DE9F35F0098FEF78D
:1021A0007DFA002821D0904C052790482179904D48
:1021B00000264FF008094FF0070B4FF002084FF0D0
:1021C000010A092911D2DFE801F01005123C71C0A3
:1021D000D5EBF600844943781F2230390098FFF789
:1021E00022FB84F805A084F80480BDE8FC9F4178B8
:1021F0000098FEF71FFA012808D002281ED00428F4
:10220000F3D185F800A084F80490EEE72E6184F8FD
:10221000058075483038017B01F08001806858B135
:102220006860A068A860E860802902D0042020715E
:10223000DBE703202071D8E72771D6E760792071AA
:10224000D3E7804601780098FEF7F4F901460129AA
:1022500002D06079032822D02E6103206071B8F883
:102260000420686882420ED298F80030A96800986D
:10227000FFF7BEFAB8F804006968091A6960A9682E
:102280000844A860B1E740B182B298F80030A9686C
:102290000098FFF7ADFA6E60A7E72771A5E704295C
:1022A000A3D12E7084F804B067719EE78046417810
:1022B0000098FEF7BFF90146012909D002292BD069
:1022C000042992D185F800A084F8049067718CE706
:1022D0002E6104206071B8F80620686882420FD22F
:1022E00098F80130A9680098FFF79DFAA868E8609F
:1022F000B8F806100844A8606868401A686074E777
:1023000040B182B298F80130A9680098FFF78BFAC3
:102310006E606AE7277168E7D5E9021081420AD04A
:10232000B8F8062098F80130009802B0891ABDE884
:10233000F05FFFF778BA98F80130B8F806200098F7
:1023400002B0BDE8F05FFFF76EBA67712649103939
:10235000A1603F22A2810D228E54521ED2B2002AC9
:10236000FAD10E7003783F220098FFF741FA062059
:1023700020713AE701780098FEF75CF9012805D052
:10238000042889D12E7084F804B02EE72E6167717D
:10239000A0782070DDE90001FFF7F4FDE07324E789
:1023A000DDE900010022FFF7C7FD28B104288ED126
:1023B00084F80F8019E708E02878022802D06079B5
:1023C000207112E784F804900FE7DDE90001012293
:1023D000FFF7B2FD20B1042891D184F80F8004E703
:1023E0006079207101E700008431002094310020E1
:1023F000A400002010B5FEF751F9002148B10848AB
:10240000064A0260074A42604173054A01203032A1
:10241000D070054801610548017010BD5553424315
:102420005431002050403020A4000020B80000208B
:1024300070B506460C4C00256178002907D030465F
:1024400000F00EFF61783046FFF7CDFA6570217815
:10245000002907D0304600F003FF21783046FFF70F
:10246000C2FA257070BD0000943100202DE9FC41B6
:1024700006460C4694F84300082803D194F845001A
:10248000502806D0D4F88000006C80470020BDE8BA
:10249000FC8194F852101C4D080604D5E970B4F87C
:1024A0005400A88003E0A970B4F85400E88094F8C0
:1024B0005A10080604D5E970B4F85C00A88003E05F
:1024C000A970B4F85C00E880A9783046FFF77EF97F
:1024D0006870E9783046FFF779F92870E8880227B4
:1024E000CDE900702034697863782278304600F0B6
:1024F00069FAA888CDE90070637822782978304697
:1025000000F060FAC2E700009431002070B50324A7
:10251000FEF7C4F830B3214E214B0022F07801259C
:10252000012802D0022836D11DE01E493F248C60CC
:10253000802008730A208873B3600520B0701020D3
:102540000B18DA73401EC0B20028F9D11A20C873E4
:102550004C74CC743571072030700320F073022066
:10256000F070032417E0F07B20B101280ED0022880
:102570000FD010E0987801060948A0F1100001D5AD
:10258000057300E00273F570002404E0F570012487
:1025900001E0F5700224204670BD00008431002067
:1025A000B0330020543100202DE9FF4F81B0834625
:1025B0000E461F46304C4FF0030884F80080584602
:1025C000FEF76CF8C8B32D4A01254FF0020AD07807
:1025D0004FF00009012802D0022849D12EE02849F5
:1025E0008F60802008730A208873966010200B1873
:1025F00083F80F90401EC0B20028F8D12820C8737D
:102600009DF80F0048749DF80E0088749DF80D0029
:10261000C8749DF80C000875780A00909DF80100B8
:1026200088759DF80000C87515710720107082F834
:102630000F8082F803A084F8008019E0D07B164652
:1026400038B95846FEF72AF818B1F57084F80090AA
:102650000EE0F07B012805D15846FEF71FF808B1BF
:10266000F57005E0F07B022802D1F57084F800A037
:10267000207805B0BDE8F08FCC0000208431002028
:102680005431002070B50324FEF708F820B3224E21
:1026900001252248F178012902D002293AD11CE013
:1026A0001F4908228A6080220A730A228A73B06056
:1026B0000420B070102000220B18DA73401EC0B244
:1026C0000028F9D12520C873357107203070032008
:1026D000F0730220F07003241CE0F17B21B101298A
:1026E00013D0022914D015E00C4902781039CA70B1
:1026F00042788A7082784A70C2780A7082794A7207
:10270000C0790872F570002404E0F570012401E03E
:10271000F5700224204670BD84310020B0330020C3
:102720005431002070B50324FDF7B8FF38B3224EB2
:102730000125224AF078012802D0022839D11FE071
:102740001F493F248C60802008730A208873B26080
:10275000B07870700620B070102000220B18DA7369
:10276000401EC0B20028F9D10320C8730A74CC748B
:10277000357107213170F0730220F070032418E0E6
:10278000F07B20B101280FD0022810D011E00B48B7
:1027900011781038C1715178817191784171D17877
:1027A0000171F570002404E0F570012401E0F5707A
:1027B0000224204670BD000084310020B033002088
:1027C0005431002070B50324FDF768FF10B31A4E92
:1027D0000125F078012802D002282BD11BE01749EF
:1027E00000228A600A73062088731548B0603F2073
:1027F000B0810324B47010200B18DA73401EC0B2ED
:102800000028F9D1CA73357107203070F4730220A3
:10281000F07003240EE0F07B20B1012805D00228DF
:1028200006D007E0F570002404E0F570012401E013
:10283000F5700224204670BD843100205431002000
:1028400074310020FFB581B00F461D460324FDF70B
:1028500025FF98B3224E0123F078012802D00228E8
:102860003BD12CE01F4A9560002414730A2090731A
:10287000B76010201118CC73401EC0B20028F9D1E7
:102880002A20D0739DF80F0050749DF80E009074AC
:102890009DF80D00D0749DF80C001075680A00902A
:1028A0009DF8010090759DF80000D07533710720E8
:1028B00030700320F0730220F07003240DE0F07BF1
:1028C00020B1012805D0022805D006E0F3700024CD
:1028D00003E0F37001E0F370022405B02046F0BD80
:1028E000843100205431002070B5059D00EB411467
:1028F000002A01D084F8AC23B4F8B223AA4202D053
:102900000DB1A4F8B25394F8AF239A4202D00BB1A0
:1029100084F8AF3300F0D6FC002070BD38B5054612
:10292000002400200090284600F006FE002847D032
:10293000284600F008FE0090009808B9002038BD35
:102940000098C0F3C00018B1284601F087FD044389
:102950000098C0F3001018B1284601F0CCFC0443E5
:102960000098C0F3401018B1284601F006FB04435C
:102970000098C0F3806018B1284601F025FC04439C
:102980000098C0F3406018B1284600F0CEFE044322
:102990000098C0F3006018B1284601F085FB04439D
:1029A0000098C0F3407018B1284600F085FE04433B
:1029B0000098C0F3405018B1284600F093FE04433D
:1029C0002046BCE72DE9F041DDE9067600EB410544
:1029D00095F88C4504F07F0C00EB411404F56B7402
:1029E00084F801C095F88C55C5F3C015A570227008
:1029F0006771E680E370002222766276A4F56B743C
:102A0000002B02D1012284F8B02300F05BFC0020EF
:102A1000BDE8F0812DE9FF4F85B007461299914638
:102A20001C4618783870587878709878DA7800EB07
:102A300002207880187938715A797A719A79BA7146
:102A4000DA79FA711A7A3A7209295FD90921019162
:102A5000DFF8C08002284FD953E001A92046FEF7D5
:102A6000F6FF04466078042846D194F9026006987F
:102A700006EBC60101EB000BE07803283CD22146AF
:102A800002A800F085F800259DF80C00022833D834
:102A90002EE001A92046FEF7DAFF044660780528FB
:102AA00026D109EB061000EBC50A98F80000B042E9
:102AB00006D088F8006002A9584600F069F80BE0DB
:102AC0002079617900EB0120B8F80210884213D315
:102AD00002A9584600F05CF82146504600F048F83C
:102AE0002079617900EB0120A8F802006D1C6DB21D
:102AF0009DF80C00A842CCDC7888BDF80410884210
:102B0000ABD80020A8F8020088F8000009B0BDE8A2
:102B1000F08F00009E00002010B50B7803704B78FA
:102B200043708B78CC7803EB042343800B790371DB
:102B30004B7943718B798371CB79C371082A16D98C
:102B40000A7A4B7A02EB032202818A7ACB7A02EB71
:102B5000032242810A7B4B7B02EB032282818A7B28
:102B60008273CA7BC2730A7C0274497C417410BDB3
:102B70000A7802704A7842708A788270CA78C27085
:102B80000A794B7902EB032282808979817170473F
:102B90000A7802704A7842708A788270CA78C27065
:102BA0000A7902714A7942718A798271CA79C2714D
:102BB000097A0172704710B54378032B11D103785D
:102BC0009C1E944200DC9A1E93B2801C002204E0FA
:102BD000845C01F8014B921C92B29A42F8D3002017
:102BE000087010BDFEB506460C460225029530461B
:102BF000FDF754FD20B9207810B1022800D02570CF
:102C00002078002704F120050B2847D2DFE800F0E8
:102C100006129D464764788654468D003046FDF77F
:102C20003DFD00283AD001202070BDE8FE40642020
:102C300000F074B9D4F880008068804700213046E5
:102C4000FEF7C4FD607180213046FEF7BFFD2071A4
:102C50003046FDF726FD002820D1241DE06FC06816
:102C600080473046FDF7E0FCC0B26077042104F8ED
:102C7000041CE16F89698847A078CDE90070637F03
:102C8000227F21783046FFF79DFEA078CDE90070C5
:102C9000637F227F61783046FFF794FEFEBD2146B8
:102CA0003046FFF739F80028F8D1D4F88000406B9F
:102CB000804708202070FEBDD4F88000806B8047DC
:102CC0000128F8D1E06F214602683046904700287D
:102CD000F1D105202070FEBDE06F214682683046AC
:102CE000904702909DF8080038B19DF8081003B095
:102CF0002046BDE8F040FEF760BE06202070FEBD15
:102D0000E06F2146C2683046904702909DF8081057
:102D100003B02046BDE8F040FEF74FBE03B02146A9
:102D20003046BDE8F040FEF7F7BE21463046FEF7DC
:102D300025FED4F8800040688047E06F294642684D
:102D400003B03046BDE8F0401047D4F88000006979
:102D5000804721463046FEF711FED4F880004068D7
:102D60008047E06F29464268304690473046FEF77C
:102D7000F9FD2770FEBD0020704730B400230B75AD
:102D800005244C75CA820B834B8330BC1A46FEF770
:102D900092BD30B400230B7509244C75CA820B8395
:102DA0004B8330BC1A46FEF786BD03784370072379
:102DB000037081608281012101770020704748798A
:102DC00070477047704700000249012008700249AF
:102DD00008707047340000203500002003490020AF
:102DE000087003490120087070470000340000207B
:102DF00035000020704770477047704703480178DE
:102E0000002901D1012101707047000088000020D5
:102E10000020704770477047704770477047704791
:102E2000012070474FF400510148FDF7EDBB000051
:102E300000040240704708B54FF4C060FEF74EF83A
:102E40004D208DF8000001208DF8010003218DF840
:102E500002108DF803006846FEF70CF808BD00006C
:102E60001CB501210220FEF77FF84FF4404000908E
:102E700003208DF8050002208DF804000A4C6946F5
:102E80002046FDF773FB0C220E212046FDF7ACFB1C
:102E90000C220F212046FDF7A7FB01214807FEF772
:102EA00063F800F003F81CBD0004024008B50021DF
:102EB0004FF00060FEF71CF84FF4E060FEF70EF8EC
:102EC0001C208DF8000001208DF801008DF8020013
:102ED0008DF803006846FDF7CDFF01210846FEF797
:102EE0006DF808BD10B501218C072046FEF7F9FBEF
:102EF000002809D001212046FEF7E4FB06490A68B4
:102F00001AB10868401E086010BD2046BDE8104098
:102F10000021FEF7DABB00003C0000200121FDF794
:102F200085B90221FDF782B93EB50446002500208F
:102F3000029001900090217AE068012919D0C168BF
:102F400041F040010291C160204600F09BF84FF42F
:102F500034100190607A10B14FF474100190E16860
:102F6000019888631420FFF7D9FFE078012824D066
:102F70002CE0816B21F480310191627A12B141F42D
:102F80008011019101998163E068C16821F04001DD
:102F900041F4801121F4800121F4003121F4002159
:102FA0000291C160204600F06DF8E0780128DCD184
:102FB0002A200090E1688860D7E7E068816821F006
:102FC0001E010A3141F020010091816028463EBD7A
:102FD000FEB50446002700250026029601960096BD
:102FE0002046FFF71FFFD4F80C010660207A012865
:102FF0000FD00121204600F093FA204600F0C7FAD6
:103000006069016821F0040100910160E07A28B153
:103010001AE00021204600F083FAEEE7E1684FF461
:1030200000704862ADF808004010ADF80A00E26890
:10303000029991624FF44071ADF80410ADF80600AA
:10304000E1680198C1F800011021204600F0CCF899
:10305000204600F0ABF84FF0FF3107E004EB8500AD
:1030600050F8902F91600068C6606D1C2078A842CF
:10307000F4D80121204600F03BF8204600F072F819
:103080003846FEBDF8B50546002700240020009014
:10309000124E0320FFF745FFE86800690090641CAA
:1030A000B44201D90020F8BD00980028F1DA0021CF
:1030B000009840F0010000900098EA681061E8680C
:1030C00002690092491CB14202D8009AD207F7D196
:1030D0000320FFF726FF3846F8BD0000400D03002F
:1030E0000022C068816821F00101816010467047AC
:1030F00038B504460D4629462046FFF79BFE20467C
:1031000000F026FA0090C10407D4012D05D140F447
:1031100080500090D4F8CC1008600098C10406D507
:103120002DB920F480500090D4F8CC100860BDE890
:103130003840C820FFF7F2BEC2684FF0FF3151603F
:10314000C2686FF0804151610149C0688161704778
:10315000000800800022C068816841F001018160A0
:103160001046704738B50446002500200090E168FD
:103170008861E168401E48612046FFF7DDFFE07886
:1031800008B910200090009840F0807040F0007066
:1031900040F0005040F0080040F40010E1688A69F7
:1031A000824302438A61284638BD000038B50025B5
:1031B000002100220092009A42F010020092009A30
:1031C000C3681A61074BC26814690094491C99428C
:1031D00002D8009CE006F7D40320FFF7A2FE2846A1
:1031E00038BD0000400D030038B500250022002343
:1031F0000093009B43F020030093009B61F38A132C
:1032000000930099C3681961074BC1680C69009469
:10321000521C9A4202D8009CA006F7D40320FFF764
:1032200080FE284638BD0000400D0300C06840699C
:1032300000F00100704710B5034600204FF0004237
:10324000012464F3DC4203EB810151F8903F1A61E1
:1032500009680A6842F0004222F080420A6010BD0C
:1032600010B586B0002300220392019200EB810189
:10327000D1F89020116841F0004141F08041009167
:1032800011F4402F0BD0C1F38144022C07D04069C8
:1032900000690190019810F47F0F0BD00DE0C06819
:1032A000C06A0390039810F47F0F06D121F000400C
:1032B000009002E021F0004000900098106006B0FD
:1032C000184610BDFFB5002600250295039501950F
:1032D0006A1E009200EB8104D4F890309A60C278A4
:1032E000012A01D10422039200EB411292F8B1337A
:1032F00033B1012B36D0022B02D0032B42D11CE07C
:10330000039B43F0010343F0080343F0800343F4BD
:10331000806343F01003039392F8AE731FB143F43C
:10332000807303932EE043F04003039392F8B0734D
:1033300047B343F02003039324E0039B43F00103CE
:1033400043F0100343F0080343F0800343F4806329
:1033500043F40073039392F8AE739FB143F4807308
:1033600003930FE0039B43F0010343F4007343F026
:103370002003039392F8AE7327B143F0800343F424
:1033800080730393D4F89070039BFB6001238B4000
:1033900041698F691F438F614FF000710291C068CE
:1033A000816941F00071816192F8AC0360F39C5532
:1033B00092F8AD0360F3CE2592F8AE0360F3CF35FB
:1033C000019592F8AF0302280DD025F4003092F851
:1033D000B11361F39340B2F8B22362F30A00019093
:1033E000032903D005E045F40030F0E740F0005039
:1033F0000190D4F890100198086004B03046F0BDF8
:10340000F0B588B0054600264FF4807C0022069275
:103410000792009205EB4114D4F8BC73002F0DD035
:10342000B4F8B233F818401EB0FBF3F080B2604538
:1034300005D960461B02C4F8BC3300E0012094F8B3
:10344000AE3323B1B4F8B2334343C4F8BC33D4F839
:10345000BC3363F3120260F3DC4294F8B40360F30C
:103460005E72069205EB8103D3F890000261E87862
:10347000012804D1D3F89020D4F8B803506153F850
:10348000900F0268284600F051F860F35D7242F038
:10349000004020F0804007901A681060E878E0BB98
:1034A00094F8AE03C8BBD4F8BC33B3B394F8B103FB
:1034B00030B1012815D0022802D0032823D110E012
:1034C000E868C26A0392DB1CC3F38F02039B9BB2C2
:1034D000934218D220220092826942F02002826137
:1034E00011E0686900690190DB1CC3F38F00019A49
:1034F00092B2824207D24FF080600090E868826901
:1035000042F080628261B4F8BC030A4683B2D4F808
:10351000B8030146284600F0B7FF08B03046F0BDBA
:103520004069026861F30102026070474069806887
:1035300040F30000401C704700B5FFF777FE0128FC
:1035400000D0002000BDC068416980690840704714
:10355000D0F8CC00006820F0040020F0020020F039
:10356000080020F02000704740694069704710B59E
:10357000044608460021D21C9308D4F8D02003E06A
:10358000146840F8044B491C9942F9D310BD70B53A
:1035900005462846FFF7DCFF40F4807455F8CC0F51
:1035A00004600A20FFF7BAFC24F4807029680860E0
:1035B0001420FFF7B3FC012070BD000070B500229D
:1035C00000250024C47001238370402686800226D3
:1035D000012901D059B115E04FF0A042C372082172
:1035E0000170042141709115C18006720AE0234ADE
:1035F000C4720C210170062141704FF4A061C1809A
:103600000672C370C26002F50061016100210AE028
:1036100002EB411300EB810403F51066A66103F58C
:1036200030636365491C43788B42F1D802F58061B1
:1036300041614031C0F8CC10002108E002EB411399
:1036400000EB810403F5A063C4F89030491C0378B3
:103650008B42F3D8002108E002EB013300EB810438
:1036600003F58053C4F8D030491C03788B42F3D85B
:1036700002F56062C0F80C21284670BD00000440CD
:1036800038B50024C368D86820F0005020F080428C
:103690000092012901D021B106E042F000500090D3
:1036A00002E042F0804000900098D8603220FFF79E
:1036B00035FC204638BD000038B504460020009097
:1036C00007480068816820468847009820F000502D
:1036D00000F1005000900098E1684861012038BD79
:1036E000980000200CB50146D1F8900000680090C9
:1036F000009820F0004000F100400090009820F079
:10370000804000F180400090009AD1F89000026063
:1037100000200190019820F4001000F500100190A5
:103720000198CA68506101200CBD7CB50546002493
:1037300000262846FFF718FF019000BF1BE0019804
:1037400080B20121A1400840A0B105F1900050F8DD
:103750002400006800900098C0F3C03028B12146D2
:10376000284600F00DF8064304E02146284600F004
:103770001CFA0643641C2878A042E0D830467CBD81
:1037800070B586B005460C4605F1900050F82460EF
:10379000B0680590F0680490DDE9041008400590D9
:1037A00005F1900050F82400006803900020049078
:1037B0000598C0F38000D0B100200190019820F05E
:1037C0000400001D01900198B06005F1900050F8D0
:1037D0002400C0680190019820F00200801C019034
:1037E00005F1900050F824000199C16073E005983C
:1037F000C0F3401048B100200190019820F0200053
:10380000203001900198B06065E00598C0F3C000D9
:1038100078B305F1900050F82400C0680190019839
:1038200020F00200801C019005F1900050F8240067
:103830000199C160052105F56370015500200190D3
:10384000019820F01000103001900198B060002025
:103850000190019820F00800083001900198B060B4
:10386000059820F010000590E1B22846FFF7F8FC1B
:1038700031E0FFE70598C0F3802060B305F19000C8
:1038800050F82400C0680190019820F00200801CCC
:10389000019005F1900050F824000199C160E1B257
:1038A0002846FFF7DDFC00200190019820F0100071
:1038B000103001900198B060082105F56370015542
:1038C00000200190019820F4806000F58060019054
:1038D0000198B06000BF0598C0F34020F8B105F131
:1038E000900050F82400C0680190019820F0020078
:1038F000801C019005F1900050F824000199C160EE
:10390000E1B22846FFF7ACFC00200190019820F4BA
:10391000007000F5007001900198B06042E10598D8
:1039200000F00100002871D0E878012812D105F1DB
:10393000900050F824000069029005F56B7000EBD0
:10394000441000690299C1F31201411A05F554703F
:1039500040F82410012105F56370015500217838E5
:1039600040F8241000200190019820F00100401C34
:1039700001900198B0600398C0F3814020B1039892
:10398000C0F3814002282AD105F1900050F82400AC
:10399000C0680190019820F00200801C019005F1A0
:1039A000900050F824000199C160E1B22846FFF769
:1039B00057FC00200190019820F010001030019079
:1039C0000198B06005F56B7000EB4410007E80F04C
:1039D000010105F56B7000EB44100176E2E00398FD
:1039E000C0F38140032899D1039820F0005000F1E2
:1039F0000050039005F1900050F8240003990160F5
:103A0000012105F29B300155CCE0FFE70598C0F39A
:103A10004000002851D005F1900050F82400C06803
:103A20000190019820F00200019005F1900050F8FB
:103A300024000199C16005F56370005D012804D17F
:103A4000012105F29B3001552DE005F56370005D05
:103A5000052804D1042105F29B30015523E005F52A
:103A60006370005D062804D005F56370005D0828CA
:103A700008D1002105F5457040F824100321873056
:103A8000015510E00398C0F3814003280BD105F5E0
:103A90006B7000EB4410007E80F0010105F56B7047
:103AA00000EB4410017600200190019820F0020004
:103AB000801C01900198B06074E00598C0F3C010BC
:103AC00040B305F1900050F82400C06801900198BF
:103AD00020F00200801C019005F1900050F82400B5
:103AE0000199C16005F5457050F82410491C40F853
:103AF0002410062178300155E1B22846FFF7B0FBCB
:103B000000200190019820F0800080300190019801
:103B1000B06047E00598C0F30010E8B30398C0F325
:103B20008140032815D105F1900050F82400C068A9
:103B30000190019820F00200801C019005F1900096
:103B400050F824000199C160E1B22846FFF788FBD4
:103B500018E00398C0F3814020B10398C0F381407E
:103B600002280FD1039820F0004000F1004003909C
:103B7000039820F08040039005F1900050F8240055
:103B800003990160032105F5637001550020019040
:103B9000019820F0100000E004E01030019001983E
:103BA000B06000BF012006B070BD7FB505460C4671
:103BB00005F1900050F82460B0680390F06802901E
:103BC000DDE902100840039005F1900050F8240050
:103BD000006801900398C0F38000D0B100200090ED
:103BE000009820F00400001D00900098B06005F1DE
:103BF000900050F82400C0680090009820F0020067
:103C0000801C009005F1900050F824000099C160DC
:103C1000B0E10398C0F3401048B100200090009834
:103C200020F02000203000900098B060A2E10398BE
:103C3000C0F34020F8B105F1900050F82400C068AE
:103C40000090009820F00200801C009005F1900088
:103C500050F824000099C160E1B22846FFF700FB4C
:103C600000200090009820F4007000F50070009093
:103C70000098B0607EE1039800F0010038B30021A5
:103C800005F5457040F8241005F1900050F8240027
:103C9000C0680090009820F00200801C009005F1A0
:103CA000900050F824000099C160E1B22846FFF767
:103CB000D7FA00200090009820F00100401C0090EE
:103CC0000098B060012105F56370015552E1039839
:103CD000C0F3C00010B300200090009820F008004E
:103CE000083000900098B06005F1900050F8240072
:103CF000C0680090009820F00200801C009005F140
:103D0000900050F824000099C160E1B22846FFF706
:103D1000A7FA052105F5637001552BE10398C0F35F
:103D2000001038B3002105F5457040F8241005F166
:103D3000900050F82400C0680090009820F0020025
:103D4000801C009005F1900050F824000099C1609B
:103D5000E1B22846FFF784FA00200090009820F096
:103D60001000103000900098B060032105F56370DA
:103D70000155FFE00398C0F3C01040B305F1900077
:103D800050F82400C0680090009820F00200801CC9
:103D9000009005F1900050F824000099C160E1B254
:103DA0002846FFF75DFA05F5457050F82410491CC8
:103DB00040F824100621783001550020009000982A
:103DC00020F08000803000900098B060D2E003982E
:103DD000C0F3801038B3002105F5457040F8241079
:103DE00005F1900050F82400C0680090009820F081
:103DF0000200801C009005F1900050F8240000990A
:103E0000C160E1B22846FFF72BFA0020009000982D
:103E100020F04000403000900098B060042105F58B
:103E200063700155A6E00398C0F3802060B305F1EC
:103E3000900050F82400C0680090009820F0020024
:103E4000801C009005F1900050F824000099C1609A
:103E5000E1B22846FFF704FA00200090009820F015
:103E60001000103000900098B060082105F56370D4
:103E7000015500200090009820F4806000F58060DB
:103E800000900098B06075E00398C0F340000028EF
:103E900070D005F1900050F82400C06800900098A0
:103EA00020F00200009005F1900050F824000099E5
:103EB000C16005F56370005D012815D1012105F28F
:103EC0009B3001550198C0F38140022848D105F587
:103ED0006B7000EB4410407E80F0010105F56B70C3
:103EE00000EB441041763BE005F56370005D03286C
:103EF00004D1022105F29B30015531E005F56370D4
:103F0000005D04280FD105F56B7000EB44100079BB
:103F1000012803D1E1B22846FFF78DF9022105F20D
:103F20009B3001551CE005F56370005D052804D148
:103F3000042105F29B30015512E005F56370005D28
:103F400006280DD105F5457050F82400032807D147
:103F5000032105F29B3001550021873840F82410D9
:103F600000200090009820F00200801C0090009833
:103F7000B06000BF012004B070BD7FB50446E068AA
:103F8000C06A00900198C0F3C30104F56B7000EBA8
:103F900041100069C01CC0F38F0673E04FF6FF713B
:103FA000009801EA80050198C0F3C30104F56B7025
:103FB00000EB41100069A84215D20198C0F3C3017B
:103FC00004F56B7000EB4110008A85B2002003906D
:103FD000039820F0200020300390E0688069039966
:103FE0008843E16888610198C0F3C30104F56B70F0
:103FF00000EB41100069C01CC0F38F060198C0F3AC
:10400000C302C0F3C30304F56B7000EB43102B46EF
:10401000C168204600F038FA0198C0F3C30104F5E6
:104020006B7000EB4110C06841190198C0F3C302E6
:1040300004F56B7000EB4210C1600198C0F3C3013E
:1040400004F56B7000EB41100069411B0198C0F34F
:10405000C30204F56B7000EB421001610198C0F3DC
:10406000C30104F56B7000EB4110406941190198E0
:10407000C0F3C30204F56B7000EB42104161E068CD
:10408000C06A0090009880B2B0420ADD0198C0F387
:10409000C30104F56B7000EB4110006900287FF448
:1040A0007DAF012004B070BDFEB50446002600259A
:1040B0000020009002900190D4F8CC00006802909B
:1040C000D4F8CC0000680190019820F00400019021
:1040D000019820F002000190019820F00800019062
:1040E000019820F0200001900298C0F3400058B1E0
:1040F000019820F00200801C01903248006841685D
:104100002046884745F001050298C0F3C00000280A
:1041100042D0019820F00800083001900298C0F3C6
:104120008000002838D0274800684168204688472A
:104130000298C0F34140022804D00298C0F34140E5
:10414000012828D16069006800900298C0F34140BE
:10415000022811D141F2707160694160009800F04D
:104160000300022818D0207A022803D10221204619
:10417000FFF7D6F901260FE04BF680316069416008
:10418000009800F00300012806D001212046FFF727
:10419000C7F9012600E001260298C0F3401030B1B3
:1041A000019820F020002030019045F0010516B163
:1041B0002046FFF7ECF90199D4F8CC0001602846BD
:1041C000FEBD000098000020FEB50446606900694D
:1041D00000900198C0F3C30104F56B7000EB41102F
:1041E0000069C01CC0F38F0674E04FF6FF710098A1
:1041F00001EA80050198C0F3C30104F56B7000EB80
:1042000041100069A84216D20198C0F3C30104F519
:104210006B7000EB4110008A85B20020029002987A
:1042200020F0806000F180600290E068806902996F
:104230008843E16888610198C0F3C30104F56B709D
:1042400000EB41100069C01CC0F38F060198C0F359
:10425000C302C0F3C30304F56B7000EB43102B469D
:10426000C168204600F010F90198C0F3C30104F5BD
:104270006B7000EB4110C06841190198C0F3C30294
:1042800004F56B7000EB4210C1600198C0F3C301EC
:1042900004F56B7000EB41100069411B0198C0F3FD
:1042A000C30204F56B7000EB421001610198C0F38A
:1042B000C30104F56B7000EB41104069411901988E
:1042C000C0F3C30204F56B7000EB421041616069FA
:1042D00000690090009880B2B0420ADD0198C0F3F6
:1042E000C30104F56B7000EB4110006900287FF4F6
:1042F0007CAF0120FEBD30B585B0044600200090A3
:104300000390039820F0100010300390E06880695B
:1043100003998843E1688861E068006A0490049822
:1043200000F00F00009004F190009DF8001050F88C
:104330002100006801900498C0F34340022806D091
:10434000032878D0052877D0072873D175E0049822
:10435000C0F30A10002869DD04F56B709DF80010A9
:1043600000EB4110C068002860D00498C0F30A1226
:1043700004F56B709DF8003000EB4310C1682046D7
:10438000FFF7F5F8049800F00F0104F56B7000EBEF
:104390004110C0680499C1F30A110144049800F067
:1043A0000F0204F56B7000EB4210C160049800F03E
:1043B0000F0104F56B7000EB411040690499C1F3E3
:1043C0000A110144049800F00F0204F56B7000EB31
:1043D0004210416104F56B709DF8001000EB411034
:1043E000456904F554709DF8001040F8215004F11F
:1043F00090009DF8001050F821000069029002988A
:10440000C0F3C940002811DD019820F0004000F100
:1044100000400190019820F08040019004F190004C
:104420009DF80020019950F82200016006E002E0AA
:1044300002E0FFE700BF00BF00BF00BF00BF03985E
:1044400020F0100010300390E06880690399084361
:10445000E1688861012005B030BD000038B5044630
:1044600000200090074800680168204688470098AF
:1044700020F00800083000900098E16848610120B1
:1044800038BD00009800002030B505460020EC78CB
:10449000002C0CD1DB1C9B0805EB8202D2F8D0204B
:1044A00003E051F8045B1560641C9C42F9D330BDF5
:1044B000FEE710B50446084611462246FCF7A4FB69
:1044C000102010BD2DE9F84306460C4615469946C6
:1044D00000204FF4F0784FF488772A78002A3DD0F6
:1044E000304486B2802A14D906F11000404505D91F
:1044F00000261034A4B2BC4200D90024284600F0A3
:1045000025F980B24B4622463146FFF7D2FFAD1C5B
:10451000E3E70D2A16D00A2A1CD006F10800404510
:1045200005D900260834A4B2BC4200D900240C48A6
:1045300041680091036821463046FCF7EAFC6D1C97
:104540000A20CAE71034A4B2BC4200D900246D1C72
:104550000020C2E700266D1C0020BEE7BDE8F883FE
:104560002400002002E008C8121F08C1002AFAD166
:1045700070477047002001E001C1121F002AFBD1E3
:104580007047000010B5044600202071401EE06214
:10459000204600F03DFB08B1032010BD94F82E0228
:1045A00094F82F1240EA0120A0F52A41553901D094
:1045B000022010BD14F8660FE178627840EA0161CC
:1045C000A078663C000440EA022001430B48B0EBAF
:1045D000012F01D1002010BD14F8821FE27863780A
:1045E00041EA0261A278120442EA03221143B0EBCD
:1045F000012F01D1002010BD012010BD0046415403
:1046000010B501240348FCF749F800B10024204606
:1046100010BD000024290020002909D0012909D05B
:104620004FF4007002290AD003290BD004207047F0
:104630000020704705480068106000207047108017
:10464000002070471060002070470000A033002059
:104650002DE9F0470F4690461E46002400251248DB
:10466000FCF71CF8D0B14FEA46294FF480360F49C9
:104670000D48FDF791FD4B46424639460A48FDF785
:1046800093FF05460848FCF709F838B12046641C3A
:10469000B04201D3012501E0032DE8D015B101207E
:1046A000BDE8F0870020FBE724290020D02E002061
:1046B000002070472DE9F0410E4617461D460024A4
:1046C0000D48FBF7EBFF88B16D022B463A463146A9
:1046D0000948FEF7B7F8044608490748FDF75CFDAE
:1046E0000548FBF7DBFF08B1032CEED014B1012025
:1046F000BDE8F0810020FBE724290020D02E002017
:1047000017B581B0144602980090684600F0DCF9B5
:10471000002802DA0B2004B010BD0B4B53F8201018
:10472000002201B10A700199002900D00A7043F8F3
:10473000201001D0012C01D00020ECE7002202A9BA
:1047400001A800F01DF8E6E7B035002030B50246BC
:1047500000201478094B00EB001113F81150A5420A
:1047600005D103EB4101557849788D4204D0401CB6
:1047700080B2BF28EFD3002030BD0000004D0008FC
:104780002DE9FF478046084616460027C8F8007006
:1047900000F09AF90546280003D50B2004B0BDE8C7
:1047A000F087C54850F825408CB1C8F80040207803
:1047B00020B16078FFF77CFFC1070AD02770E8B20C
:1047C0006070FFF71DFFC1070AD00320E6E70C2049
:1047D000E4E71EB1400701D50A20DFE70020DDE74E
:1047E0001EB1400701D50A20D8E7607804F10A021B
:1047F0000221FFF711FF30B96089B0F5007F02D3C5
:10480000B0F5805F01D90120C8E700252946204680
:10481000FFF7B8FE012826D10021E84604EB01107D
:1048200000F5F770027952B1027AC37A42EA036264
:10483000837A407A1B0443EA0020024300E000220E
:1048400048F82120491C0429E8D3002658F82650AE
:1048500025B129462046FFF795FE00E0022010B161
:10486000761C042EF2D3032802D018B10D2095E750
:10487000012093E794F83B0094F83C10B4F80AC088
:1048800040EA0120604501D00D2087E794F84600FA
:1048900094F8471040EA012058B914F8540FE17811
:1048A000627840EA0160A1780904543C41EA02219F
:1048B0000843A06194F840A084F803A0BAF1010F66
:1048C00004D0BAF1020F01D00D2067E70AFB00FA0D
:1048D00094F83D20A27012B1511E0A4201D00D2061
:1048E0005CE794F8411094F8423041EA03232381B5
:1048F0004FEA5C16B3FBF6F106FB113109B10D204E
:104900004CE794F8431094F8448041EA082179B9BF
:1049100094F8501094F8538094F8519041EA08614B
:1049200094F852804FEA084848EA092841EA080109
:1049300094F83E8094F83F9048EA0929B9F1000FB5
:1049400008D0B3FBF6F609EB0A08B044414503D2A0
:104950000D2023E70D2021E7A1EB0801B1FBF2F1C7
:1049600041B3012640F6F672914200D302264FF67B
:10497000F672914200D30326891C6161E56105EB63
:1049800009022262A844C4F82880032E14D03BB345
:1049900052446262022E25D001F0010201EB410176
:1049A00002EB5101491E6144B1FBFCF181421BD96C
:1049B0000D20F3E60D20F1E60BB10D20EEE694F8A4
:1049C0005C2094F85F3094F85D8042EA036294F8CA
:1049D0005E301B0443EA08231A4362628900E1E760
:1049E0000D20DBE64900DDE74FF0FF302061E0609D
:1049F00080206071032E57D194F8600094F8611004
:104A000040EA012001284FD1691C204600F000F93E
:104A1000F0BB677194F82E0294F82F1240EA01203F
:104A2000A0F52A4155393FD114F8300FE17862786A
:104A300040EA0160A178303C090441EA02210843C0
:104A40001E49884230D194F8140294F8171294F851
:104A5000152240EA016094F81612090441EA022185
:104A60000843174988421FD194F8180294F81B1282
:104A700094F8192240EA016094F81A12090441EAF4
:104A800002210843206194F81C0294F81F1200E0F0
:104A90000AE040EA016094F81E1294F81D2209040D
:104AA00041EA02210843E060267006490888401C5C
:104AB0000880E080002071E6B0350020525261414C
:104AC00072724161CE00002010B504464FF0FF30F5
:104AD0002368002B0BD0194600E0491C0A78202AD5
:104AE00001D33A2AF9D10A783A2A01D0002010BD20
:104AF00013F8012B303A0A2AF9D28B42F7D1032A54
:104B0000F5D21046491C216010BD000008B535499A
:104B100001200860FBF710FDFBF7C6FFFCF706F865
:104B20000120FCF7E1F80020FCF744F84FF47F0681
:104B30003046FBF709FE0120FCF73CF8FF20FCF7AC
:104B40004BF84FF050173846FBF7FEFDFCF77CFDA5
:104B500025480090254B264A00212648FDF7C0F93C
:104B600023492448FEF73EF8DFF88C80234DDFF818
:104B70009090244CC8F80470C8F8006032210023DB
:104B800022460846FFF79EFC19491A48FEF72AF804
:104B900001221DA11D48FFF7B3FD6870B8B9A888B0
:104BA000142814D9002304F11A0246213220FFF7F9
:104BB00089FC002304F134025A213220FFF782FCE1
:104BC000002304F14E026E213220FFF77BFCA888FF
:104BD000401CA8804846FBF7EEFB4846FBF7EBFB82
:104BE000C7E700003800002040000020BC00002083
:104BF000D02E0020242900202400002000000020C6
:104C0000FFFF0F00984C0008303A0000D000002051
:104C100070B504460E460025E06AB04210D020462A
:104C200000F010F805465DB960780123324604F1C2
:104C30003001FFF70DFD10B14FF0FF360125E662A0
:104C4000284670BD2DE9F041044600272079002850
:104C50001FD0E66A04F130016078012332468846AD
:104C6000FFF728FD08B1012713E000202071206A1A
:104C7000A169301A88420CD2E57808E0A0690644A0
:104C80006078012332464146FFF714FD6D1E022D68
:104C9000F4D23846BDE8F081C7EBB2E5C8EB55C5A4
:104CA000CC00000000000000000000000000000038
:104CB0000000D5FDD4DAC9FDBCB6D6D0C7EBB2BB77
:104CC000D2AAB9D8B1D5B5E7D4B40000C9FDBCB6F5
:104CD000BDE1CAF8BAF3D7D4B6AFB9D8BBFA000071
:104CE000000000000000B9D8BBFABAF3C7EBB0CEA1
:104CF000B5F4B5E7D4B4D6D8C6F40000000000007F
:104D0000D5FD00007FFC0100010001000100110041
:104D100011F8110011001100110011001100FFFE27
:104D20000000D4DA020002000400FFFE0800084080
:104D30001040304057FC9040104010401040104050
:104D40001FFE1000B2E52008203C27C02040F8409C
:104D50002FFE20402940365CE4442444275C244450
:104D60002444A7FC4404D2AA00007FFC0440044071
:104D70003FF8244824483FF802007FFC0420084004
:104D80001C80038006703808BDE110201020202010
:104D900027FE4420F82011FC20004000FDFC4104C7
:104DA00001041D04E10441FC0104CAF801000100F2
:104DB000FFFE010001003FF82108210821083FF80B
:104DC0002388054009203118C1060100BAF30010FC
:104DD00000F81F00100010001FFE1000100010004F
:104DE00017F8140824082408440887F80408BBFAB4
:104DF000100011F011101110FD10111031103910A8
:104E0000551055109110111211121212120E140099
:104E1000B9D810100810082000003FF80100010068
:104E20000100FFFE010002800280044008203018CB
:104E3000C006BBFA100011F011101110FD10111076
:104E40003110391055105510911011121112121203
:104E5000120E1400B0CE1050104810481040FBFE47
:104E60001080148018FC3144D144112811281210EC
:104E7000122854442182B5F410201020103E102036
:104E8000FDFC110415FC190431FCD124102013FE83
:104E90001020102050202020BAF3001000F81F002E
:104EA000100010001FFE10001000100017F814086A
:104EB00024082408440887F80408D6D80000001005
:104EC00000F83F000100FFFE01001FF011101FF06D
:104ED00011101FF001003FF80100FFFEC6F40100B1
:104EE00000801FFC1004100410041FFC10001000B0
:104EF000100017FC24042404440487FC0404C9E8BB
:104F0000000021F0111011100110020EF40013F82E
:104F100011081110109014A0184010A003180C06CE
:104F2000B1B8040004000FF01820644003801C7026
:104F3000E00E1FF0111011101FF0111011101FF0D2
:104F40001010CDE220802080208020807C8044C012
:104F500084A0849048882888108010802080408019
:104F600080800080B2BF2000107CFF44004842488F
:104F70002450FFC8004800447E44424442684250E6
:104F80007E4042400040D4B6000047F020002000A0
:104F900000000FF8E24022402240224022482448EC
:104FA0002448283850008FFCB3CC10003BF8E208AE
:104FB00022082208FBF82000600073FCA840A840EB
:104FC00023F82040204027FC2000B9CC0000FFF847
:104FD00082088208BFE8820882089FC890489048EB
:104FE00090489FC890488008FFF88008C9FD02409B
:104FF0000F4078400840084008400840FFFC084047
:105000000840084010401040204040408040BCB65E
:10501000200027F8410841109110F1202138410863
:105020008288F288825002503420C4508888030459
:10503000CDF500087FFC010001000100010001081E
:105040007FFC010001000100010001000104FFFEDE
:105050000000B1C800802080208020802088249813
:105060003EA020C02080208020802082268238829E
:10507000607E0000B9D810100818042004487FFC96
:10508000010001000104FFFE0100028002800440D3
:105090000830300EC004B1D520041BFE0804408443
:1050A00040A45FF440844184428444844884508412
:1050B0004084428441144008CFB500387FC00400CA
:1050C000041008203FC00100022004103FF801082E
:1050D00009200910110825080200CAD6001000F89E
:1050E0007F00010001103FF8010001000104FFFEF4
:1050F000010001000100010005000200BFEC10806A
:105100001080108010885BFC54885088908810882C
:105110001FFE1080114011201210140E1804C2FD41
:1051200013F8120813F85A0857F8500497FE14A4FD
:1051300014A417FC100013F8111010E01118160633
:10514000D0C5088008440FFE1000100837FC50003E
:10515000900817FC100013F812081208120813F830
:105160001208CFA2020004101FF8101010101FF038
:1051700010101FF0101010101FF0020051845092F8
:1051800090120FF0B4F210001000100413FEFC2077
:105190001020142018203020D020102010201020A3
:1051A000102050A02040D1B900083FFC2080208072
:1051B0002080208020882FFC208020A0209820881C
:1051C000408040849FFE0000C7C5103813C01040C7
:1051D0001040FC8417FE31203910560E55149910DA
:1051E00011101110121014101010D6D0010001006F
:1051F00001047FFE41044104410441047FFC410459
:10520000010001000100010001000100CDB3108088
:105210001040204827FC4880F910120827FC412440
:10522000F920412001201A22E222441E0800BDCFAD
:10523000104010202024FFFE200050885106FE025E
:10524000108810501E20F05050501088110E12047B
:10525000BBA410801060102413FEFE041204160478
:105260001BFC3204D2001200120012001400540081
:105270002800CDA200100038FBC008401040204894
:1052800047FC78400840084048502BF8100028069A
:1052900047FC8000B2E20000404427E424548554D7
:1052A000655425540D5415542554E5542104228485
:1052B000244428542008C1BF00101FF810101FF00C
:1052C0001014FFFE00001FF011101FF011101FF04E
:1052D00001001FF001007FFCCFD400101FF8101058
:1052E00010101FF0101010101FF014504444344CD4
:1052F000145004400444FFFE0000CABE00103FF8F2
:105300000000000000000004FFFE01000100092071
:105310001918210C4104010005000200B9A6008003
:1053200000800880FC80108417FE10841084108494
:1053300010841D04F1044104024404280810C4DC54
:1053400010801088249844A0FEC002847C84447C91
:105350007C00448844987CA044C044825482487EA7
:10536000C6B5100413FE54205E4451FE5504FF24BC
:105370001124552455245524952408201050208CA0
:105380004304C2CA020001087FFC0100424427888E
:10539000111022484FE401200104FFFE010001002A
:1053A00001000100B5E70200020002107FF8421080
:1053B00042107FF0421042107FF0421002000204BF
:1053C000020401FC0000C6BD00087FFC01001110B2
:1053D0001110092009200104FFFE01000100010055
:1053E0000100010001000100B3CC08041DFEF1041E
:1053F00011041104FF0411FC380037FE542050281A
:1054000091FC1020102417FE1000C6AB1080104431
:1054100017FE2404240467FCA400240427FE269419
:105420002A942BFC2A9432942294220CD6C33FF85F
:1054300024483FF801007FFC01001FF010101FF00E
:1054400010101FF010101FF01014FFFE0000C9E82C
:1054500001F02110111011100110020EF40013F8C8
:1054600011081110109010A0144018B0130E0C0465
:10547000B2EE082004487FFC010001103FF8010053
:105480000204FFFE0400082017F02080408080887E
:105490001FFCBEF910801080108410FE1104FD0462
:1054A000128410441014102410441D84F08440040D
:1054B00000280010D3C300083FFC21082108210860
:1054C0003FF82108210821083FF821082108210878
:1054D000410841288010BBA70100008000843FFEE6
:1054E0002004200420043FFC200420002000200091
:1054F0002000400040008000CBD90040404437FEEF
:10550000104007FC0444F44417FC144410E0115804
:1055100012481440284647FC0000B6C80100008429
:105520003FFE222022283FFC222023E020002FF0F3
:1055300022202140208043608C1E3004B5B51040ED
:1055400010401244114CFD50104437FE38045404EE
:10555000500493FC10041004100417FC1004BAC586
:1055600000101FF81010101010101FF00004FFFEA4
:10557000040008101FF800100010001000A00040E8
:10558000BCC6004020401040104000400044F7FEE0
:10559000104010401040104012401440184010407D
:1055A0000040CAFD084049402A400884FFFE19080F
:1055B0002C884A881088FE90225022201450188887
:1055C000250E4204C1D001047F84102410241F241E
:1055D0002124212452248A2404240424082410048D
:1055E000200440140008B1ED010001087FFC010017
:1055F0003FF801000104FFFE020005100CA034403A
:10560000C430050E06040400C9A81000100413FEDF
:105610001004FC041004140419FC3004D004100419
:105620001004100413FC50042000C3E821102110C2
:1056300021142FFEF910211427FE2C443444E44495
:1056400027FC244424442444A7FC4404B8FC00045C
:10565000FFFE01083FFC210821083FF8210821082E
:105660003FF829080500020005801870E00EB6E03A
:105670000200020007F008201840258002800C80FC
:1056800071FC02080C10122021C001000E007000F5
:10569000D0A310401020100413FEFC001088310627
:1056A0003A8A548850509050102010501088130E91
:1056B0001C04D5FD00087FFC010001000100010071
:1056C000111011F811001100110011001100110446
:1056D000FFFE0000B1EA1000101013F81000FC00EB
:1056E000100437FE3840544051509148124C144435
:1056F000104011401080CEC4020001000104FFFEE2
:1057000010100810082004200440028001000280CC
:1057100004600810300EC004B9DC10401F7C2890D3
:10572000450801007FFE40029FF410101FF010009A
:105730001FF0101010101FF01000C0ED000813FC37
:10574000FA48224823F82248FA4823F820402050FB
:1057500023F83C40E04040440FFE0000B4E6020065
:105760000204FFFE040008000BF810101020304463
:105770005FFE904010401040104011401080BEDD90
:10578000100413FE12041204FFFC122016241BFE48
:105790003220D22413FE15041504150459FC2104EB
:1057A000B9A4000000087FFC010001000100010015
:1057B000010001000100010001000104FFFE0000E2
:1057C0000000BEDF00200FF0082008200FE00820B6
:1057D0000FE008200FE008200824FFFE04400C2002
:1057E00010182008B3C604400E407880088009FED7
:1057F000FE0408281C201AA828A4292649228A2049
:10580000082008A00840B7BD040003000100000400
:10581000FFFE0400041007F8041004100410081020
:105820000810101020A04040CABD008000A00090C9
:105830000084FFFE008000803E8008800840084011
:1058400009200E227012200A0004D2BB00000000C2
:1058500000000000000000000004FFFE0000000047
:10586000000000000000000000000000D2B30004AF
:10587000FFFE020004101FF810101110111011107B
:105880001110111011101290046008183008B4A5FE
:10589000202020203C20482451FEFD24552455245E
:1058A0007D24552455FC7D205428543C55E28C829F
:1058B000B7A201001120111021047FFE0200020096
:1058C00007F006100A2009401080214042308C0E5B
:1058D0003004D1D30008001C7DE0042008201128EA
:1058E000213C7D2005200520492829FC10002806A0
:1058F00047FC8000D0D008080BFC100020004000BE
:10590000080417FE301050109010101010101010D6
:10591000101010501020D7D40100020004101FF8FE
:10592000101010101FF01010101010101FF0101099
:10593000101010101FF01010B6AF004008407C404F
:10594000004405FEFE441044104420442444428494
:10595000FE844104010402280410B6D40010001093
:105960000010FC1407FE041048102910109010902D
:10597000281024104410801000500020B8B41008E3
:105980001FFC20002FF048108FF008100FF00400CB
:105990000FF00C201240218042400430380ED6C651
:1059A0000404240425043FA4242444A4FFE4042480
:1059B0003FA424A424A424842684250404140408D5
:1059C000C7E50040404837FC104083F860402FFE98
:1059D000080813FC2208E3F8220823F822082228EA
:1059E0002210CAB1000804087E08440847FE440893
:1059F00044087C8844484448440844087C08444897
:105A000000280010BAE3100817FC100010085BFC17
:105A10005608520893F81208120813F810001004E0
:105A20001FFE10001000C4DA010001000100010493
:105A30007FFE4104410442044284446448345014CB
:105A40004004400440144008D7E800007C0845FCAE
:105A500049084908510849F849084508450845F8E2
:105A600069085108410847FE4000B2BD0100090025
:105A7000091009F809000904FFFE010009100D18BA
:105A80001120212000C003000C007000BDF802208E
:105A9000422022282FFC02200220E22022282FFC74
:105AA000222022202220242050268FFC0000BCE04F
:105AB000044004402448247C24A025182408240001
:105AC00004083FFC2448244824482448FFFE0000E2
:105AD000CAD3200813FC12080248FE480A4812489C
