:02000004080CE6
:10000000C0390020C1010C0823130C08790A0C0820
:1000100021130C08BD020C08514E0C080000000012
:10002000000000000000000000000000011D0C089E
:10003000B5030C0800000000D9130C08D91D0C08EA
:10004000DB010C08DB010C08DB010C08DB010C08F0
:10005000DB010C08DB010C08DB010C08DB010C08E0
:10006000DB010C08DB010C08DB010C08DB010C08D0
:10007000DB010C08DB010C08DB010C08DB010C08C0
:10008000DB010C08DB010C08DB010C08DB010C08B0
:10009000DB010C08DB010C08DB010C08DB010C08A0
:1000A000DB010C08DB010C08DB010C08DB010C0890
:1000B000391E0C08DB010C08DB010C08DB010C0805
:1000C000DB010C08DB010C08DB010C08DB010C0870
:1000D000DB010C08DB010C08DB010C08DB010C0860
:1000E000DB010C08DB010C08DB010C08DB010C0850
:1000F000DB010C08DB010C08DB010C08DB010C0840
:10010000DB010C08DB010C08DB010C08DB010C082F
:10011000DB010C08DB010C084D1E0C08DB010C0890
:10012000DB010C08DB010C08DB010C08DB010C080F
:10013000DB010C08DB010C08DB010C08DB010C08FF
:10014000DB010C08DB010C08DB010C08DB010C08EF
:10015000DB010C08DB010C08DB010C08DB010C08DF
:10016000DB010C08DB010C08DB010C08DB010C08CF
:10017000DB010C08CD130C08DB010C08DB010C08BB
:10018000DB010C08DB010C08DB010C08DB010C08AF
:10019000DB010C08DB010C08DB010C08DB010C089F
:1001A000DB010C08DB010C08DB010C08DFF80CD0CC
:1001B00000F02AF80048004719620C08C0390020F6
:1001C0000648804706480047FEE7FEE7FEE7FEE7F1
:1001D000FEE7FEE7FEE7FEE7FEE7FEE7DD1D0C08B3
:1001E000AD010C0840EA01039B0703D009E008C9F0
:1001F000121F08C0042AFAD203E011F8013B00F8EC
:10020000013B521EF9D27047064C074D06E0E068EC
:1002100040F0010394E8070098471034AC42F6D34D
:10022000FFF7C8FF6C440F088C440F0810B5074C4B
:100230002060084600F00CF820680028FCD1BDE8DA
:10024000104000214FF0804001F039BE3C000020FA
:100250003EB504464FF080450021284601F02FFEB0
:1002600000220121284601F019FF022C02D0012CA6
:1002700003D005E00B20019002E042F6DF60019020
:100280000520ADF800000020ADF80800ADF8020030
:100290006946284601F02CFF0121284601F00CFE9A
:1002A0000121284601F0F9FD01221146284601F0FE
:1002B000F5FE0121284601F002FE3EBDFEE710B525
:1002C0000121CC05204601F0C1F82046BDE81040D0
:1002D000002101F0BBB8000001460020024A52682C
:1002E0000A4200D00120704700B0024030B500241F
:1002F0002A4B19682A4A114019601968026811438B
:100300001960596B21F007015963596B4268114319
:1003100059634168002928D001292DD0022930D005
:10032000032933D0C1680A01016909024469240321
:100330008568214315430D43996B0D439D63816986
:10034000D963196C6FF30D011964196CC2691143FB
:100350001964818C09045A6C02F040425A645A6C48
:10036000006A02430A435A6430BDC1680A02018A26
:100370000904047D2406DBE7C1680A02018A090436
:10038000D6E7C1684A010169C902D1E7C1684A01DB
:10039000016989024469E403CAE7000000B0024031
:1003A000FCE0FCFF0248016841F001010160704778
:1003B00000B00240704701B502E00098401E009076
:1003C00000980028F9D108BD064900200860091DE1
:1003D0000860091D0860091D0860024902481431BF
:1003E00008607047003C0140FFFF7F000149086042
:1003F000704700000C3C024070B5064600250029FD
:1004000005D0012927D0022928D04FF4407500F0EB
:10041000D3F809281ED1134C206820F440702060C6
:10042000206828432060206820F0F80020602068C1
:1004300046F0020108432060206840F480302060CC
:1004400000F0BAF8216821F002012160216821F052
:10045000F801216070BD4FF48075D8E74FF4007546
:10046000D5E70000103C024009200D490A68D2037C
:1004700001D5012070470A68D20601D506207047D1
:100480000A68D20501D5022070470A6812F0E00F11
:1004900001D00720704709688907FBD508207047FD
:1004A0000C3C024010B51749884229D8022100208F
:1004B000FFF7A2FF02210820FFF79EFF0221102074
:1004C000FFF79AFF02211820FFF796FF0221202054
:1004D000FFF792FF02212820FFF78EFF0221302034
:1004E000FFF78AFF02213820FFF786FF0221402014
:1004F000FFF782FF02214820FFF77EFF002010BD9A
:10050000012010BD00000A082DE9F04105460E4605
:1005100017460024DFF83C8015E056F824102868C0
:1005200000F01AF8092802D00120BDE8F0812868FF
:1005300056F824100068884201D00220F5E72868A8
:10054000001D2860641CBC4202D228684045E4D9E2
:100550000020EAE7FBFF0B0870B505460E4600F0E9
:100560002BF8092813D10A4C206820F44070206031
:10057000206840F400702060206840F00100206096
:100580002E6000F019F8216821F00101216070BD92
:10059000103C024005480068002805DA0348044979
:1005A0000C3801600349016070470000103C0240B4
:1005B00023016745AB89EFCD08B509200090FFF70F
:1005C00053FF009002E0FFF74FFF00909DF80000FE
:1005D0000128F8D09DF8000008BD00224FF020430C
:1005E00010280AD0B0F5807F09D0B0F5805F09D01F
:1005F000D3F85801814309D107E0586EFAE7D3F8E0
:100600008400F7E7D3F8A400F4E70122104670470E
:10061000D0E9001211438268C068521E520142EABA
:10062000402001430148016070470000500100A0D4
:1006300070B50468A100A1F1C041D1F84011CE0B02
:10064000F603D0E901121143D0E903231A43114301
:100650004269C36911438269056A11431943426AB9
:100660002943114331434FF02046002C3CD0D6F8AB
:1006700040416FF30E042B4322431343C6F840312D
:1006800002689200A2F1C042C2F84011016871B341
:100690008900A1F1C041D1F8481101F07043816A8D
:1006A0000A684C68521E641E42EA04148A68521E8C
:1006B00044EA02240A8A521E44EA02421A43D6F845
:1006C000483103F07043CC68898A641E2403491EB4
:1006D00044EA01511943C6F8481100688000A0F1AE
:1006E000C040C0F8482170BDC6F84011CEE7FFE712
:1006F000D6F8481101F07041806A02684368521EC2
:100700005B1E42EA03138268521E43EA0223C26858
:10071000521E43EA0233028A521E43EA0243828A8D
:10072000007E521E43EA0252401E42EA0060084325
:10073000C6F8480170BD000002490A6842EA40005C
:1007400008607047540100A02DE9F0410024012207
:100750003AA13E4805F06CF84FF0006600BB3B4FF5
:100760003B4DF868A86000F08EF9C8B94FF40068F6
:10077000374B42460C333749344805F005F978B910
:10078000E8683449820806EBC42000F076F938B9ED
:10079000641CA4B2D7E902018842E9D1372028704D
:1007A00072B674682C4D0021284601F088FBAF0416
:1007B000384601F091FB0021384601F080FB2846C5
:1007C00001F08AFB00220121284601F067FC00218C
:1007D000284601F074FB00F08DFE002000F0EAFED8
:1007E000FFF7F2FD4FF0E0200025056100F0F2FE7A
:1007F0000021381400F0B6FF002000F0FBFF17497D
:10080000174801F08BFD72B6432000F08BFD2A20C3
:1008100000F088FD4D2000F085FD4C2000F082FDA9
:1008200072B6306880F3098885F31488306880F3E5
:100830000888A0470020BDE8F0810000303A7570BC
:10084000646174652E62696E000000000011002072
:10085000000000202421002000100040D02E0020A5
:10086000242900202DE9FC47012140F2A71000F0C7
:10087000DFFD2E20009002268DF8056001248DF802
:10088000044000258DF806508DF80740204F69463A
:10089000384600F045F80E21384600F091F8202740
:1008A0000097DFF870806946404600F039F8202153
:1008B000404600F083F840200090DFF85C906946E5
:1008C000484600F02DF800976946484600F028F8A1
:1008D0002021484600F072F88DF804508DF807503A
:1008E0006003009069460D4800F01AF800F0D6FC4D
:1008F000102000908DF805608DF804408DF80650AA
:100900008DF807406946404600F00AF8BDE8FC87CC
:1009100000080240001C0240002002400004024087
:100920002DE9F041002201274FF0030C07FA02F5F0
:100930000B682B40AB422CD1066853000CFA03F431
:10094000A64306600E79D0F800809E4046EA08066D
:1009500006600E79012E01D0022E12D18668A643C0
:1009600086604E79D0F808809E4046EA0806866088
:100970004668AE43466045688E799640B6B23543C8
:100980004560C568A543C560CC799C40C3681C43DD
:10099000C460521C102AC9D3BDE8F08110B54B07C2
:1009A000DB0E9A40C90800EB8100016A0F249C40CD
:1009B000A1430162016A1143016210BD4183704786
:1009C00001837047034A203902EB01111022FFF71F
:1009D00009BC00007A910C084069806880B27047B9
:1009E000D0F8CC000068C0F341407047084490F84C
:1009F0009B03704700EB8100D0F85003704710B59F
:100A0000044600220023C4F8103304EB8200C0F82F
:100A10001433C0F85033A01880F88C33521CD2B273
:100A20000F2AF2D30820A4F8B203204603F096FA66
:100A3000204603F025F8204602F046FF012120461B
:100A400003F0EEFA204602F093FF204603F052F83E
:100A5000002010BDD0F81003704710B503F067FAFE
:100A6000002010BD0022431883F89B2300EB4113A4
:100A7000C3F8C02303F094B9FEE707B592B2684605
:100A8000FFF742FD0EBD10B5FFF784FDF320FFF721
:100A9000ADFC3820FFF706FDC0B210BD10B5002335
:100AA0001C4C2468002C06D0012C0DD0022C17D031
:100AB000032C1ED023E000EB4003C1EB011000EB40
:100AC000400003EB40131AE0A1F20F11C0F5F070E3
:100AD000A1EB011100EB4110401E00EB40030EE0C2
:100AE000A0F20F10A0EB001001EB401000EB400350
:100AF00005E000EB0010C1EB001303F20F130648F2
:100B0000834205D205488068C2521844110C817096
:100B100010BD00003800002000FA05001000002081
:100B200070B58AB0C0F30744C0F30725C6B2FFF71B
:100B3000C6FB4FF4403000900120019004940395CF
:100B400002960F2005900B488068069000200790C1
:100B50004FF4887008904FF4F07009906846FFF7E2
:100B6000C5FBFFF71FFC0220FFF7B6FB0028FAD0F9
:100B70000AB070BD100000202DE9FC5F012140F299
:100B8000FF1000F055FC4FF00408CDF80080032062
:100B90008DF8050002208DF8040000208DF8060075
:100BA0008DF807006946AB48FFF7BAFE0E22022116
:100BB000A848FFF7F3FE4FF00809CDF8009069460A
:100BC000A448FFF7ADFE0E220321A248FFF7E6FE80
:100BD0004FF4807ACDF800A069469E48FFF7A0FE4A
:100BE0000E2208219B48FFF7D9FE01240094694694
:100BF0009948FFF795FE092200219748FFF7CEFE9E
:100C00004FF4006BCDF800B069469448FFF788FEBA
:100C10000E220B219148FFF7C1FE20030090694688
:100C20008E48FFF77DFE0E220C218C48FFF7B6FEA2
:100C30000220009069468848FFF772FE09220121D0
:100C40008548FFF7ABFE4025009569468448FFF7CD
:100C500067FE0E2206218248FFF7A0FE20200090AA
:100C600069468048FFF75CFE0E2205217D48FFF7AC
:100C700095FE009569467B48FFF752FE0E2206213D
:100C80007848FFF78BFE6003009069467148FFF7D4
:100C900047FE0E220D216F48FFF780FEA602009648
:100CA00069466F48FFF73CFE09220A216C48FFF7AE
:100CB00075FEE003009069466648FFF731FE0E229C
:100CC0000F216448FFF76AFE009469466648FFF703
:100CD00027FE0E2200216448FFF760FE8027009760
:100CE00069466248FFF71CFE0E2207215F48FFF7A6
:100CF00055FECDF8008069465B48FFF711FE0E22D5
:100D000002215948FFF74AFE4FF01008CDF8008045
:100D100069465448FFF704FE0E2204215148FFF7AC
:100D20003DFE2003009069464D48FFF7F9FD0E2275
:100D30000C214B48FFF732FE00954D4D6946284681
:100D4000FFF7EEFD0E2206212846FFF727FECDF81D
:100D500000B069464248FFF7E3FD0E220B214048F0
:100D6000FFF71CFECDF8008069463F48FFF7D8FD2D
:100D70000E2204213C48FFF711FECDF80090694691
:100D80003648FFF7CDFD0E2203213448FFF706FE5B
:100D9000CDF800A069463048FFF7C2FD0E220821B9
:100DA0002D48FFF7FBFD4FF40079CDF80090694620
:100DB0002948FFF7B5FD0E2209212748FFF7EEFD70
:100DC000009769462648FFF7ABFD0E22072124480D
:100DD000FFF7E4FD009669462348FFF7A1FD0E22C8
:100DE0000A212148FFF7DAFDCDF8009069461E4838
:100DF000FFF796FD0E2209211B48FFF7CFFD009655
:100E00001C4E69463046FFF78BFD0E220A21304604
:100E1000FFF7C4FDCDF8008002208DF805008DF8A5
:100E2000044000208DF806008DF8074069462846EA
:100E3000FFF776FD009769462846FFF771FD102100
:100E40002846FFF7BDFD80212846FFF7B9FDBDE824
:100E5000FC9F0000001C0240000402400000024011
:100E6000001802400010024000200240000802402A
:100E7000000C02400014024000B58FB0012188062A
:100E800000F01CFB0121C80500F0D2FAFFF774FE48
:100E900000F0A2FE062207214FF4967000F080FBBE
:100EA0004FF4803000F06CFB012000F073FB3D201C
:100EB00000F04AFB0028FAD0002000900190029038
:100EC00003900C900D900E90049005902E200690AB
:100ED0001720079040F20E20089040F2271009904A
:100EE0004FF409700A9040F23D100B90684600F0F4
:100EF00021F9012000F00EF90FB000BD10B590B03F
:100F00002F20009040F20E2001901820029040F215
:100F10002710039001200490FF2005900690079071
:100F20000890099007200B9040F2A3500D90C01E2E
:100F30000E904FF488700F900C480C904FF4C060E6
:100F40000A900B4C6946204600F056F9012000F04B
:100F50009FF90121204600F043F9012000F098F9A3
:100F6000044800F009F810B010BD000000FA05D0E8
:100F7000046901402C00002001490861704700000D
:100F8000100000200649002804D00648886001208F
:100F9000C86070474FF0504088600020C8607047BC
:100FA0001000002000FA05D010B50949C9680029D1
:100FB00008D00146074800F011F9BDE810400120B3
:100FC00000F066B901460348803800F007F9F4E7FD
:100FD00010000020046901402DE9F04F04468846C6
:100FE0002546334902EB0210DFF8C8A001EB4009A7
:100FF000002B0FD0002709EB070090F802B0002665
:101000005FEA0B6035D541462046DAF80020FFF74D
:1010100045FD34E04FF0000B09EB0B00877800260C
:10102000380606D541462046DAF80020FFF736FD9F
:1010300005E041462046DAF80420FFF72FFD780648
:10104000070E641CA4B2601B10280CD0761CF6B2EC
:10105000082EE5D30BF1010B0BF0FF0BBBF1200FBA
:10106000DAD3BDE8F08F2C4608F101081FFA88F8A2
:10107000F0E741462046DAF80420FFF70FFD4FEA7B
:101080004B604FEA106B641CA4B2601B102808D0A0
:10109000761CF6B2082EB3D37F1CFFB2202FAAD342
:1010A000DFE72C4608F101081FFA88F8F4E7000092
:1010B0004C660C08240000202DE9FC410121802011
:1010C00000F0B6F94FF48064009401208DF804001C
:1010D00000218DF806108DF807008DF805100C4FD3
:1010E00069463846FFF71CFC66000096694638469C
:1010F000FFF716FCA500009569463846FFF710FC7F
:1011000003481830048006800580BDE8FC8100009B
:10111000001C02400649002804D0086840F0010085
:1011200008607047086820F0010008607047000000
:101130001868014030B5264A136826490B401360F1
:10114000038A1B04146845692C431C431460121D58
:1011500013680B401360038B1B041468C5692C4390
:101160001C431460121D13680B401360038C1B0496
:101170001468456A2C431C431460121D13680B400D
:101180001360018D09041368C46A23430B43136081
:10119000111D0A68104B1A400A60D0E900231A4357
:1011A000D0E9023423431A430B681A430A60416BA7
:1011B0000A02018E0B04064924310C6804F07F44B6
:1011C0000C600C68806B134304431C430C6030BDFF
:1011D0000868014000F800F08F88FE0F41617047F9
:1011E000002904D0016841F00101016070470168E5
:1011F00021F001010160704770B58A8812044368CC
:1012000003F4704343600B68134343608A891204FC
:10121000836803F4704383608B68134383600269BF
:1012200022F0070202610A690261CA6913020A8C8C
:10123000120491F8244024068569002585618E6991
:1012400022431E4316438661426922F0FF02426137
:101250004A694261C26940F207739A43C261D1E9A7
:101260000A231A43C261826A85620A6B82620A8F0C
:101270001204C36A03F0E023C3624B6B1343C362DF
:10128000026B6FF30A020263C96B016370BD000059
:101290000149086070470000246801407CB50121C5
:1012A000BF2000F0C5F80420009000248DF8054010
:1012B00001258DF804508DF806408DF807506946D9
:1012C0000C48FFF72DFB4FF4B840009069460A48E0
:1012D000FFF726FB8DF805408DF804508DF8064089
:1012E0008DF807500820009069460448FFF718FB66
:1012F0007CBD000000100240001C0240000C0240B7
:101300004FF400610148FFF759BB0000001C024088
:101310004FF400610148FFF753BB0000001C02407E
:10132000FEE7704700F01F02012191404009800054
:1013300000F1E020C0F880117047000030B50F23A5
:10134000C27801250178002A1FD0154A126802F4DC
:10135000E062C2F5E062C2F30722C2F10404D340A6
:101360004278A24084781C401443220101F1E0211C
:1013700081F80024007800F01F018D4040098000B2
:1013800000F1E020C0F8005130BD01F01F008540A1
:101390004809800000F1E020C0F8805130BD000015
:1013A0000CED00E002490843024908607047000064
:1013B0000000FA050CED00E0024A1140014302482A
:1013C0000160704780FFFF1F08ED00E0014801F059
:1013D00075BF00002429002070472DE9FF5F894672
:1013E000074611469B466846FFF7ECFA0025EA4699
:1013F0001AF80580002409EB0506C4F1070028FA55
:1014000000F0C00706D03819B1B280B25A46FFF7D3
:1014100045FB05E03819B1B280B20E9AFFF73EFBEA
:10142000641C082CE9D36D1C102DE1D3BDE8FF9F8F
:10143000054A002903D01168014311607047116803
:10144000814311607047000030380240054A00298E
:1014500003D0116801431160704711688143116026
:101460007047000010380240054A002903D0116877
:10147000014311607047116881431160704700009B
:1014800038380240054A002903D011680143116031
:101490007047116881431160704700004038024076
:1014A000054A002903D01168014311607047116893
:1014B000814311607047000020380240054A00292E
:1014C00003D01168014311607047116881431160B6
:1014D0007047000044380240054A002903D01168D3
:1014E000014311607047116881431160704700002B
:1014F000243802401048016841F0010101600E4AA1
:1015000000210832116002680C4B1A400260031D72
:101510000B4A1A60084B0B4A84331A60084A103A87
:101520001B1D1A60026822F48022026002480C30FF
:101530000160181D0160704700380240FFFFF6EAA5
:1015400010300024003000200246002051090129FB
:101550000BD002290DD00949096802F01F020123AE
:1015600093400B4200D00120704704497439096848
:10157000F3E70249091F0968EFE7000074380240E9
:10158000034A116821F440310143116070470000A3
:101590008C3802400149086770470000000047424C
:1015A000800140EA0160024940EA02700860704729
:1015B0008838024001490860704700003C0E4742ED
:1015C000010901EB8101490000F00F000844C0B29D
:1015D0007047000078B5002400940025294ECA20E9
:1015E00030605320306000F051F8E8B325482438CB
:1015F0000460244942F20110203908600B1D18686C
:1016000000F0070018608D13191D086800F0040031
:10161000009A521C0092009AAA4201D00028F4D0ED
:101620000868400701D4002525E018681C60154AA9
:101630004FF6FF70103A1060121F134810601148E7
:101640000C380460001D0460001D04600D48083063
:1016500004600C48183004600A4820300460001D03
:1016600004600C60074800E005E01C30046000F0F6
:101670009BF820B10125FF203060284678BD002569
:10168000F9E7000024280040FF007F0008B5002093
:1016900000900E490868400615D44FF0FF300860EE
:1016A0008B13086800F04000009A521C0092009AC8
:1016B0009A4201D00028F4D00868400601D50120E4
:1016C00008BD002008BD012008BD00000C28004016
:1016D00010B502460C460E4801680E480140080C41
:1016E000E070C1F30423637001F03F03A370C1F302
:1016F00042312170002A0AD1FFF762FFE070607862
:10170000FFF75EFF6070A078FFF75AFFA07010BD72
:10171000042800403FFFFF0010B502460C460F486A
:1017200001680F480140C1F305402070C1F3062352
:10173000637001F07F03A37001F48001090CE17074
:10174000002A0AD1FFF73CFF20706078FFF738FFCE
:101750006070A078FFF734FFA07010BD0028004033
:101760007F7F7F0030B50F4DCA222A6053222A6046
:101770000C4C0C4B1C3C20F004021C3300F0040009
:10178000002906D0216811432160196801431960BE
:1017900005E0216891432160196881431960FF20A9
:1017A000286030BD2428004018B500200090104B60
:1017B000CA201860532018600D491839086820F0B5
:1017C000A00008604FF40034086800F02000009A80
:1017D000521C0092009AA24201D00028F4D008685E
:1017E000800601D5012000E00020FF21196018BD0E
:1017F0002428004018B500210091154BCA2119601A
:101800005321196012491C39002805D0086840F49A
:1018100080600860012017E0086820F4806008609C
:101820000B4A183A9413106800F004000099491C00
:1018300000910099A14201D00028F4D0106840071F
:1018400001D4002000E00120FF21196018BD000034
:10185000242800402DE9FC5F0121FC20FFF7E8FD72
:1018600002208DF804008DF8050000208DF8060098
:101870008DF80700012000906946D148FFF750F825
:101880000C220021CE48FFF789F80220009069461B
:10189000CB48FFF745F80C220121C948FFF77EF835
:1018A000042000906946C648FFF73AF80C2202214E
:1018B000C348FFF773F8082000906946C048FFF757
:1018C0002FF80C220321BE48FFF768F81027009775
:1018D0006946BB48FFF724F80C220421B848FFF7FB
:1018E0005DF84FF02008CDF800806946B448FFF756
:1018F00017F80C220521B248FFF750F84FF4805931
:10190000CDF800906946AE48FFF70AF80C22114660
:10191000AB48FFF743F84FF4005ACDF800A06946F2
:10192000A748FEF7FDFF0C220D21A548FFF736F86A
:10193000BD0200956946A248FEF7F2FF0C220E2177
:101940009F48FFF72BF86C00009469469C48FEF70F
:10195000E7FF0C220F219A48FFF720F801200090A2
:1019600069469848FEF7DCFF0C2200219548FFF7F6
:1019700015F80220009069469248FEF7D1FF0C222C
:1019800001219048FFF70AF8009569468E48FEF756
:10199000C7FF0C220E218C48FFF700F8009469461F
:1019A0008948FEF7BDFF0C220F218748FEF7F6FF9E
:1019B0000120009069468448FEF7B2FF0C22002106
:1019C0008148FEF7EBFF0220009069467E48FEF753
:1019D000A7FF0C2201217C48FEF7E0FF4FF0800BAF
:1019E000CDF800B069467948FEF79AFF0C2207212E
:1019F0007648FEF7D3FFE611009669467348FEF776
:101A00008FFF0C2208217148FEF7C8FFA01100903B
:101A100069466E48FEF784FF0C2209216B48FEF7E9
:101A2000BDFF6011009069466848FEF779FF0C22FF
:101A30000A216648FEF7B2FF20110090694663480C
:101A4000FEF76EFF0C220B216048FEF7A7FFCDF8D2
:101A5000009069465D48FEF763FF0C2211465B4823
:101A6000FEF79CFFCDF800A069465848FEF758FFE6
:101A70000C220D215548FEF791FF00956946534809
:101A8000FEF74EFF0C220E215048FEF787FF009410
:101A900069464E48FEF744FF0C220F214B48FEF7E3
:101AA0007DFF009669464848FEF73AFF0C22082160
:101AB0004548FEF773FFA011009069464248FEF7C3
:101AC0002FFF0C2209214048FEF768FF60110090AB
:101AD00069463D48FEF724FF0C220A213A48FEF7EA
:101AE0005DFF402000903A4D69462846FEF718FFFA
:101AF0000C2206212846FEF751FF0097694631481F
:101B0000FEF70EFF0C2204212E48FEF747FFCDF80A
:101B1000008069462B48FEF703FF0C220521294867
:101B2000FEF73CFF012000902A4F69463846FEF739
:101B3000F7FE0C2200213846FEF730FF20110090FE
:101B400069461F48FEF7ECFE0C220B211C48FEF7ED
:101B500025FF009469461B48FEF7E2FE0C220F2188
:101B60001848FEF71BFF009669461648FEF7D8FE98
:101B70000C2208211348FEF711FFCDF800B069468A
:101B80002846FEF7CDFE0C2207212846FEF706FF69
:101B90000220009069460D48FEF7C2FE0C2201218A
:101BA0000A48FEF7FBFE0120009069460748FEF751
:101BB000B7FE0C2200210548FEF7F0FEBDE8FC9FB1
:101BC0000014024000180240000C024000100240C5
:101BD000001C02400008024000B593B0FFF73AFE37
:101BE00001210846FFF740FC0220019007220292E3
:101BF000042103910492059006900790012008901B
:101C0000002009900A9110210B9140210C914FF472
:101C1000C0710D910E90C9000F9110904FF40050BB
:101C2000119001A8129008A8FEF702FD00F002F83A
:101C300013B000BD2DE9FF4101250095082601964E
:101C400002950024039420210120FEF7C6FC002801
:101C5000F9D16846FEF7DCFC0A2000F041F80220CA
:101C6000009001960295039420210120FEF7B5FC17
:101C70000028F9D16846FEF7CBFC032000900196BE
:101C800004270297039420210120FEF7A6FC0028D8
:101C9000F9D16846FEF7BCFC20210120FEF79DFC2F
:101CA0000028F9D16846FEF7B3FC40F231200097D6
:101CB00001960295039020210120FEF78EFC00285A
:101CC000F9D16846FEF7A4FC40F26A50FEF734FDF5
:101CD00020210120FEF781FC0028F9D1BDE8FF8119
:101CE00001B581B0054901984843009002E0009891
:101CF000401E009000980028F9D10CBDA08601007C
:101D0000704700001CB50021019100912E4A106817
:101D100040F4803010604FF4A043106800F40030AD
:101D200000900198401C0190009810B901989842C9
:101D3000F3D11068800302D50120009000E00091EB
:101D4000009801283FD120484030016841F080517F
:101D500001601E49086840F4404008601A48083095
:101D600003680360036843F400430360036843F4BB
:101D7000A0530360041F164B2360136843F0807365
:101D8000136013689B01FCD50A6842F480320A6034
:101D90004A68D203FCD50A6842F400320A604A68F5
:101DA0009203FCD50B4A40F205711160016821F0E5
:101DB00003010160016841F0020101600168C1F3A3
:101DC00081010229FAD11CBD003802400070004098
:101DD000195A4007003C02407047000010B51148F6
:101DE000016841F4700101600F48016841F0010190
:101DF00001600D4A00210832116002680B4B1A4045
:101E00000260031D0A4A1A60026822F480220260FE
:101E100005480C300160FFF775FF0249054880391D
:101E2000086010BD88ED00E000380240FFFFF6FEBC
:101E30001030002400000C0801F024BD10B500F0A3
:101E400017F8BDE8104000F033B9000010B5074C9A
:101E50000121204600F016F9002805D02046BDE8F3
:101E60001040012100F028B810BD00000010004013
:101E700008B54FF4C060FFF795FA36208DF80000E2
:101E800002208DF8010003208DF8020001208DF85A
:101E900003006846FFF752FA08BD002904D0018804
:101EA00041F0800101807047018821F080010180AC
:101EB0007047C94301827047C943018270470029B6
:101EC00004D0018841F0010101807047018821F0B0
:101ED000010101807047000010B55D49884209D1B9
:101EE00001210846FFF7F8FA0021BDE81040012063
:101EF000FFF7F2BAB0F1804F0CD05649884213D1A7
:101F000001210220FFF7CCFA0021BDE81040022099
:101F1000FFF7C6BA01210846FFF7C2FA0021BDE863
:101F200010400120FFF7BCBA4B49884209D101217A
:101F30000420FFF7B5FA0021BDE810400420FFF7A8
:101F4000AFBA4649884209D101210820FFF7A8FA13
:101F50000021BDE810400820FFF7A2BA404988429E
:101F600009D101211020FFF79BFA0021BDE81040A4
:101F70001020FFF795BA3B49884209D10121202062
:101F8000FFF78EFA0021BDE810402020FFF788BA45
:101F90003549884209D101210220FFF79DFA00212D
:101FA000BDE810400220FFF797BA304988420AD1B5
:101FB00001210C042046FFF78FFA2046BDE81040AF
:101FC0000021FFF789BA2A4988420AD101214C042D
:101FD0002046FFF781FA2046BDE810400021FFF7B8
:101FE0007BBA244988420AD101218C042046FFF79C
:101FF00073FA2046BDE810400021FFF76DBA1E4974
:10200000884209D101214020FFF74AFA0021BDE8AA
:1020100010404020FFF744BA1849884209D10121F5
:102020008020FFF73DFA0021BDE810408020FFF737
:1020300037BA134988420AD1841501212046FFF797
:102040002FFA2046BDE810400021FFF729BA10BD45
:10205000000001400004004000080040000C004067
:102060000010004000140040000401400040014006
:10207000004401400048014000180040001C00409E
:102080000020004002460020138A0B4092890A403B
:10209000002B02D0002A00D001207047002A03D074
:1020A00082890A438281704782898A43828170478C
:1020B0003EB501211020FFF7E5F96320019042F2BF
:1020C0002730ADF80000094C6946204600F010F8B2
:1020D00001212046FFF7EDFE012211462046FFF7C1
:1020E000DDFF01212046FFF7EAFE3EBD0010004063
:1020F00030B50288164C174DA0420DD0A8420BD027
:10210000B0F1804F08D0144B984205D0134B984241
:1021100002D0134B984203D122F070034A881A432D
:10212000104B984206D0104B984203D022F44073D3
:102130000A891A4302804A68C2620A880285A0425C
:1021400001D0A84201D1897A01860121818230BD66
:10215000000001400004014000040040000800406D
:10216000000C0040001000400014004070B5044610
:102170000D46204600F02CF9A0F57F42FF3A05D02D
:1021800004EB400245F40041A2F88C15C0B270BDCA
:1021900070B50D46194600EB4114012384F8AE33A7
:1021A000C4F8B853C4F8BC2394F8C423002A06D05A
:1021B000022284F8B423FEF755FC002070BD0022F3
:1021C00084F8B423F7E770B50D46194600EB4114C7
:1021D000002384F8AE33C4F8B853C4F8BC2394F891
:1021E000C523002A06D0022284F8B423FEF73AFC65
:1021F000002070BD84F8B433F8E730B402240C75C5
:1022000001244C750024CC820A834C83150600EB14
:10221000431202D582F8C44301E082F8C54300238B
:1022200030BC1A4600F017B80121C0F81013002086
:10223000704770B50D46194600EB411404F56C74F7
:10224000012304F8023C02232371A560E260FEF73B
:1022500009FC002070BD70B50C4611461A460125D8
:10226000E078012802D0022819D105E0204601F0CB
:102270006CFA0220E07012E0207F01210D2804D0CA
:102280000B2807D00C2808D009E0E1700020207747
:10229000002504E0E170022501E0E17003252846F5
:1022A00070BD70B50D46194600EB4114002384F84B
:1022B000AE33C4F8B853C4F8BC23002A02D10122BB
:1022C00084F8C52394F8C52332B1022284F8B423DC
:1022D000FEF7C8FB002070BD84F8B433F8E710B5F2
:1022E0000C46114600EB411303F56C73002203F812
:1022F000022C03221A719C600822DA60FEF7B2FBFE
:10230000C0B210BD0221002200EB4103A3F88C25CE
:10231000491CC9B20829F7D30020704770B505469B
:102320000C46002121706170A1700122E2702277B9
:102330004020A07184F8201084F8212021792846BB
:1023400000F021F86179284600F01DF8002070BDEA
:102350000021C0F810130020704770B504460A250C
:1023600005290AD0042908D006290BD12570D4F8F4
:1023700080000068BDE870400047D4F88000406CE1
:102380008047257070BD082907D200EB4100B0F8E6
:102390008C15C1F30E01A0F88C150020704730B4E5
:1023A000DDE9025442F080020A7506224A75CB82AA
:1023B0000322B2EB132F03D140F209420A8301E05A
:1023C00000220A834C8323462A4630BCFFF743BFD2
:1023D0000146002001EB4002B2F88C25120405D51D
:1023E000401CC0B20828F5D34FF6FF7070470A882A
:1023F00003781A440A800178084470472DE9FC47A5
:1024000006460F461546002406F58878CDE9008576
:102410004FF40073002239463046FFF7C0FFB0F199
:10242000000913D10B4805E0311991F8101101553D
:10243000641CA4B2AC42F7D3434607F1500207F143
:102440003E0107F13400009500F0B4FF4846BDE8B6
:10245000FC870000542F00202DE9FC410E46154654
:1024600000F588744FF4807300223146CDE90045B1
:10247000FFF795FF071E05D12A46214606F12200E7
:1024800001F01AF83846BDE8FC812DE9FC411E46F2
:10249000089D00F5887442F440730022CDE90045A0
:1024A000FFF77DFF071E04D12A463146204601F082
:1024B00052F83846BDE8FC812DE9F05F80460C46B5
:1024C00000270020A074207F0B2509260121DFF8BA
:1024D000E4914FF0080B4FF0050A0C280FD2DFE80B
:1024E00000F0E6060F3B445F6D8790B3C5D9627973
:1024F00004F114014046FFF7F2FE02202077D6E0F7
:1025000061794046FEF772FA012802D003281FD0F5
:10251000CDE0207D00F08000618B59B141F288311F
:10252000A9F80010802802D084F81CA009E003203C
:10253000207706E03221A9F80010802806D0072075
:1025400020774046FEF748FA2082B0E02677F8E789
:10255000257784F812A0AAE02379A2894046A168D1
:10256000FFF767FE04202077A1E021794046FEF7BF
:102570003DFA012800D1267704280CD003280DD07D
:102580004046FEF729FA218A401AB9F8001088421D
:1025900000D925778BE06078207088E0257786E089
:1025A000607908EB401080F8C5136379A289404632
:1025B000A168FFF776FE0620207778E06179404633
:1025C000FEF714FA012806D0042807D002280AD002
:1025D00003280BD06BE00720207768E0607820703C
:1025E0000C20207763E084F81CA060E025775EE093
:1025F0000022237911464046FFF71BFE84F81CB0E9
:1026000055E021794046FEF7F1F90646012E0CD03F
:10261000032E0FD04046FEF7DFF9218A401AB9F8A1
:102620000010884208D9257741E0607820700D209D
:1026300020773CE025773AE0042E38D1607820708E
:102640000420A074032732E0607908EB401090F872
:10265000C51381F0010180F8C5130022637911468A
:102660004046FFF71EFE0A20207720E061794046B1
:10267000FEF7BCF9012804D0022807D0032807D0B0
:1026800015E0607820700D20207710E026770EE0AE
:1026900025770CE0A07B401CC0B2A073022801D8B3
:1026A000217704E084F812B0607820700227384661
:1026B000BDE8F09F9C0000202DE9F04192B0074654
:1026C0000C460126A1780025FF204FF001080A29B9
:1026D00027D2DFE801F00527375B657992ABC4CEDE
:1026E000082221463846FFF7B7FE002819D194F892
:1026F0002900A0713846FEF7B0F984F80280A0796D
:102700000023CDE9005061791A46384600F0BCFD3F
:10271000A0790023CDE9005021791A46384600F00F
:10272000B3FDA7E0122221463846FFF795FE0028A8
:10273000F7D1D4F88000C16904F122008847022053
:10274000A07097E001222146384600F0E6FF0028FD
:102750001BD1022001F0B2F8A41C84F81E80D4F82A
:102760007E00006A80470320207000950195A27FBB
:10277000A1780023384600F087FD00950195A27FDF
:10278000E1780023384600F07FFD73E009222146FE
:102790003846FFF733FE00286CD10420A07069E0B2
:1027A000E28E21463846FFF729FE002862D1D4F890
:1027B000800004F1500204F13E01436A04F1340048
:1027C00098470520A07055E094F8302006256AB19E
:1027D000009002AB21463846FFF757FE28BBD4F8DD
:1027E0008000816A02A88847A57043E0D4F8800081
:1027F000816A22A08847A5703CE094F83120072523
:102800006AB1009002AB21463846FFF73EFE60B940
:10281000D4F88000C16A02A88847A5702AE0D4F8DD
:102820008000C16A15A08847A57023E094F8322083
:1028300008256AB1009002AB21463846FFF725FE15
:10284000C0B9D4F88000016B02A88847A57011E0D8
:10285000D4F88000016B09A08847A5700AE094F8BD
:1028600039202146384600F064FF18B90920A070CD
:1028700000E0002612B03046BDE8F0814E2F410046
:102880002DE9F0410746069E884614461D46384607
:1028900000F0B4FF002000F095FF21463846FFF716
:1028A0003DFD44F87C5F666041463846FEF7A7F878
:1028B0006068016888473846BDE8F04100F089BF8C
:1028C00021220A75FF224A750022CA820A834A839E
:1028D00000231A46FFF7BFBC70B5044601200C4D1B
:1028E000002A02D0012A0BD105E02B78EA78204695
:1028F000FFF783FC04E06B78AA782046FFF77DFCA5
:10290000044A1169491C1161042900D9042070BDD1
:1029100094310020A4000020014900200870704775
:102920008431002070B5054601242846FEF792F850
:10293000F8B1124801782846FEF75CF80D2801D05E
:10294000022416E00E480F4A0168914210D1A0F10E
:1029500020024168526891420BD1007B20B10128CE
:1029600007D0022802D004E0002402E0022400E0A4
:10297000022403481030C473204670BD94310020F7
:1029800074310020555342530A490A22012803D0CA
:10299000022800D10A707047074B1878401CC0B25B
:1029A00018700A2804D2062008700120C8707047E9
:1029B0000A70704784310020B8000020A1220A75F7
:1029C000FE224A750022CA820A8301224A83012319
:1029D000014AFFF740BC00009C3100202DE9F35F65
:1029E0000E4601240098FEF735F8002818D04F4D08
:1029F000DFF83CA14F4F28784FF00008A3464FF076
:102A000008090B280CD2DFE800F0060C1A475461C5
:102A10006E797E398C00009800F0BCF985F800B022
:102A200080E031460098FFF74BFF0446022004B9CE
:102A30002870032C76D168700920287072E0314626
:102A40000098FFF7BBFF044620004FF0030107D1B9
:102A50009AF808008AF8080208B1787818B1297045
:102A6000032C07D05EE087F801B0D6F88000006C38
:102A7000804757E069700920287053E0737900227D
:102A800031460098FFF7B9FB044620004AD18AF886
:102A900008826878287045E0009800F063FB10B168
:102AA000FFF772FF3EE00420287087F800800024C2
:102AB00038E0009800F0B6FA10B1FFF765FF31E09A
:102AC0000520287087F8008000242BE0009800F093
:102AD000EDF910B1FFF758FF24E085F8009087F872
:102AE000008000241EE0009800F0ECFA10B1FFF71F
:102AF0004BFF17E068782870002413E031460098F7
:102B000000F01AF80EE0D6F88000C06B8047C0B223
:102B100010B1012803D005E085F8009002E00624FA
:102B200000E004242046BDE8FC9F00008431002022
:102B300094310020B80000202DE9F35F0098FDF7E4
:102B400089FF002821D0904C052790482179904D8D
:102B500000264FF008094FF0070B4FF002084FF026
:102B6000010A092911D2DFE801F01005123C71C0F9
:102B7000D5EBF600844943781F2230390098FFF7DF
:102B800022FB84F805A084F80480BDE8FC9F41780E
:102B90000098FDF72BFF012808D002281ED004283A
:102BA000F3D185F800A084F80490EEE72E6184F854
:102BB000058075483038017B01F08001806858B18C
:102BC0006860A068A860E860802902D004202071B5
:102BD000DBE703202071D8E72771D6E76079207101
:102BE000D3E7804601780098FDF700FF01460129F0
:102BF00002D06079032822D02E6103206071B8F8DA
:102C00000420686882420ED298F80030A9680098C3
:102C1000FFF7BEFAB8F804006968091A6960A96884
:102C20000844A860B1E740B182B298F80030A968C2
:102C30000098FFF7ADFA6E60A7E72771A5E70429B2
:102C4000A3D12E7084F804B067719EE78046417866
:102C50000098FDF7CBFE0146012909D002292BD0AF
:102C6000042992D185F800A084F8049067718CE75C
:102C70002E6104206071B8F80620686882420FD285
:102C800098F80130A9680098FFF79DFAA868E860F5
:102C9000B8F806100844A8606868401A686074E7CD
:102CA00040B182B298F80130A9680098FFF78BFA1A
:102CB0006E606AE7277168E7D5E9021081420AD0A1
:102CC000B8F8062098F80130009802B0891ABDE8DB
:102CD000F05FFFF778BA98F80130B8F8062000984E
:102CE00002B0BDE8F05FFFF76EBA67712649103990
:102CF000A1603F22A2810D228E54521ED2B2002A20
:102D0000FAD10E7003783F220098FFF741FA0620AF
:102D100020713AE701780098FDF768FE012805D098
:102D2000042889D12E7084F804B02EE72E616771D3
:102D3000A0782070DDE90001FFF7F4FDE07324E7DF
:102D4000DDE900010022FFF7C7FD28B104288ED17C
:102D500084F80F8019E708E02878022802D060790B
:102D6000207112E784F804900FE7DDE900010122E9
:102D7000FFF7B2FD20B1042891D184F80F8004E759
:102D80006079207101E70000843100209431002037
:102D9000A400002010B5FDF75DFE002148B10848F1
:102DA000064A0260074A42604173054A01203032F8
:102DB000D070054801610548017010BD555342436C
:102DC0005431002050403020A4000020B8000020E2
:102DD00070B506460C4C00256178002907D03046B6
:102DE00000F00EFF61783046FFF7CDFA657021786C
:102DF000002907D0304600F003FF21783046FFF766
:102E0000C2FA257070BD0000943100202DE9FC410C
:102E100006460C4694F84300082803D194F8450070
:102E2000502806D0D4F88000006C80470020BDE810
:102E3000FC8194F852101C4D080604D5E970B4F8D2
:102E40005400A88003E0A970B4F85400E88094F816
:102E50005A10080604D5E970B4F85C00A88003E0B5
:102E6000A970B4F85C00E880A9783046FFF77EF9D5
:102E70006870E9783046FFF779F92870E88802270A
:102E8000CDE900702034697863782278304600F00C
:102E900069FAA888CDE900706378227829783046ED
:102EA00000F060FAC2E700009431002070B50324FE
:102EB000FDF7D0FD30B3214E214B0022F0780125E3
:102EC000012802D0022836D11DE01E493F248C6023
:102ED000802008730A208873B3600520B07010202A
:102EE0000B18DA73401EC0B20028F9D11A20C8733B
:102EF0004C74CC743571072030700320F0730220BD
:102F0000F070032417E0F07B20B101280ED00228D6
:102F10000FD010E0987801060948A0F1100001D503
:102F2000057300E00273F570002404E0F5700124DD
:102F300001E0F5700224204670BD000084310020BD
:102F4000B0330020543100202DE9FF4F81B083467B
:102F50000E461F46304C4FF0030884F80080584658
:102F6000FDF778FDC8B32D4A01254FF0020AD0784D
:102F70004FF00009012802D0022849D12EE028494B
:102F80008F60802008730A208873966010200B18C9
:102F900083F80F90401EC0B20028F8D12820C873D3
:102FA0009DF80F0048749DF80E0088749DF80D0080
:102FB000C8749DF80C000875780A00909DF801000F
:102FC00088759DF80000C87515710720107082F88B
:102FD0000F8082F803A084F8008019E0D07B1646A9
:102FE00038B95846FDF736FD18B1F57084F80090F1
:102FF0000EE0F07B012805D15846FDF72BFD08B106
:10300000F57005E0F07B022802D1F57084F800A08D
:10301000207805B0BDE8F08FCC000020843100207E
:103020005431002070B50324FDF714FD20B3224E67
:1030300001252248F178012902D002293AD11CE069
:103040001F4908228A6080220A730A228A73B060AC
:103050000420B070102000220B18DA73401EC0B29A
:103060000028F9D12520C87335710720307003205E
:10307000F0730220F07003241CE0F17B21B10129E0
:1030800013D0022914D015E00C4902781039CA7007
:1030900042788A7082784A70C2780A7082794A725D
:1030A000C0790872F570002404E0F570012401E095
:1030B000F5700224204670BD84310020B03300201A
:1030C0005431002070B50324FDF7C4FC38B3224E00
:1030D0000125224AF078012802D0022839D11FE0C8
:1030E0001F493F248C60802008730A208873B260D7
:1030F000B07870700620B070102000220B18DA73C0
:10310000401EC0B20028F9D10320C8730A74CC74E1
:10311000357107213170F0730220F070032418E03C
:10312000F07B20B101280FD0022810D011E00B480D
:1031300011781038C1715178817191784171D178CD
:103140000171F570002404E0F570012401E0F570D0
:103150000224204670BD000084310020B0330020DE
:103160005431002070B50324FDF774FC10B31A4EDF
:103170000125F078012802D002282BD11BE0174945
:1031800000228A600A73062088731548B0603F20C9
:10319000B0810324B47010200B18DA73401EC0B243
:1031A0000028F9D1CA73357107203070F4730220FA
:1031B000F07003240EE0F07B20B1012805D0022836
:1031C00006D007E0F570002404E0F570012401E06A
:1031D000F5700224204670BD843100205431002057
:1031E00074310020FFB581B00F461D460324FDF762
:1031F00031FC98B3224E0123F078012802D0022836
:103200003BD12CE01F4A9560002414730A20907370
:10321000B76010201118CC73401EC0B20028F9D13D
:103220002A20D0739DF80F0050749DF80E00907402
:103230009DF80D00D0749DF80C001075680A009080
:103240009DF8010090759DF80000D075337107203E
:1032500030700320F0730220F07003240DE0F07B47
:1032600020B1012805D0022805D006E0F370002423
:1032700003E0F37001E0F370022405B02046F0BDD6
:10328000843100205431002070B5059D00EB4114BD
:10329000002A01D084F8AC23B4F8B223AA4202D0A9
:1032A0000DB1A4F8B25394F8AF239A4202D00BB1F7
:1032B00084F8AF3300F0D6FC002070BD38B5054669
:1032C000002400200090284600F006FE002847D089
:1032D000284600F008FE0090009808B9002038BD8C
:1032E0000098C0F3C00018B1284601F087FD0443E0
:1032F0000098C0F3001018B1284601F0CCFC04433C
:103300000098C0F3401018B1284601F006FB0443B2
:103310000098C0F3806018B1284601F025FC0443F2
:103320000098C0F3406018B1284600F0CEFE044378
:103330000098C0F3006018B1284601F085FB0443F3
:103340000098C0F3407018B1284600F085FE044391
:103350000098C0F3405018B1284600F093FE044393
:103360002046BCE72DE9F041DDE9067600EB41059A
:1033700095F88C4504F07F0C00EB411404F56B7458
:1033800084F801C095F88C55C5F3C015A57022705E
:103390006771E680E370002222766276A4F56B7492
:1033A000002B02D1012284F8B02300F05BFC002046
:1033B000BDE8F0812DE9FF4F85B00746129991468F
:1033C0001C4618783870587878709878DA7800EB5E
:1033D00002207880187938715A797A719A79BA719D
:1033E000DA79FA711A7A3A7209295FD909210191B9
:1033F000DFF8C08002284FD953E001A92046FEF72C
:10340000F6FF04466078042846D194F902600698D5
:1034100006EBC60101EB000BE07803283CD2214605
:1034200002A800F085F800259DF80C00022833D88A
:103430002EE001A92046FEF7DAFF04466078052851
:1034400026D109EB061000EBC50A98F80000B0423F
:1034500006D088F8006002A9584600F069F80BE031
:103460002079617900EB0120B8F80210884213D36B
:1034700002A9584600F05CF82146504600F048F892
:103480002079617900EB0120A8F802006D1C6DB273
:103490009DF80C00A842CCDC7888BDF80410884266
:1034A000ABD80020A8F8020088F8000009B0BDE8F9
:1034B000F08F00009E00002010B50B7803704B7851
:1034C00043708B78CC7803EB042343800B79037132
:1034D0004B7943718B798371CB79C371082A16D9E3
:1034E0000A7A4B7A02EB032202818A7ACB7A02EBC8
:1034F000032242810A7B4B7B02EB032282818A7B7F
:103500008273CA7BC2730A7C0274497C417410BD09
:103510000A7802704A7842708A788270CA78C270DB
:103520000A794B7902EB0322828089798171704795
:103530000A7802704A7842708A788270CA78C270BB
:103540000A7902714A7942718A798271CA79C271A3
:10355000097A0172704710B54378032B11D10378B3
:103560009C1E944200DC9A1E93B2801C002204E050
:10357000845C01F8014B921C92B29A42F8D300206D
:10358000087010BDFEB506460C4602250295304671
:10359000FDF760FA20B9207810B1022800D025701C
:1035A0002078002704F120050B2847D2DFE800F03F
:1035B00006129D464764788654468D003046FDF7D6
:1035C00049FA00283AD001202070BDE8FE4064206E
:1035D00000F074B9D4F8800080688047002130463C
:1035E000FEF7C4FD607180213046FEF7BFFD2071FB
:1035F0003046FDF732FA002820D1241DE06FC06864
:1036000080473046FDF7ECF9C0B26077042104F83A
:10361000041CE16F89698847A078CDE90070637F59
:10362000227F21783046FFF79DFEA078CDE900701B
:10363000637F227F61783046FFF794FEFEBD21460E
:103640003046FFF739F80028F8D1D4F88000406BF5
:10365000804708202070FEBDD4F88000806B804732
:103660000128F8D1E06F21460268304690470028D3
:10367000F1D105202070FEBDE06F21468268304602
:10368000904702909DF8080038B19DF8081003B0EB
:103690002046BDE8F040FEF760BE06202070FEBD6B
:1036A000E06F2146C2683046904702909DF80810AE
:1036B00003B02046BDE8F040FEF74FBE03B0214600
:1036C0003046BDE8F040FEF7F7BE21463046FEF733
:1036D00025FED4F8800040688047E06F29464268A4
:1036E00003B03046BDE8F0401047D4F880000069D0
:1036F000804721463046FEF711FED4F8800040682E
:103700008047E06F29464268304690473046FEF7D2
:10371000F9FD2770FEBD0020704730B400230B7503
:1037200005244C75CA820B834B8330BC1A46FEF7C6
:1037300092BD30B400230B7509244C75CA820B83EB
:103740004B8330BC1A46FEF786BD037843700723CF
:1037500003708160828101210177002070474879E0
:103760007047704770470000024901200870024905
:103770000870704734000020350000200349002005
:1037800008700349012008707047000034000020D1
:103790003500002070477047704770470348017834
:1037A000002901D10121017070470000880000202C
:1037B00000207047704770477047704770477047E8
:1037C0000120704740210148FDF7F8B80020024071
:1037D000704708B54FF4C060FDF7E4FD4D208DF84B
:1037E000000001208DF8010003218DF802108DF8F2
:1037F00003006846FDF7A2FD08BD00001CB50121CD
:103800000220FDF715FE4FF44040009003208DF894
:10381000050002208DF804000A4C69462046FDF799
:103820007FF80C220E212046FDF7B8F80C220F215C
:103830002046FDF7B3F801214807FDF7F9FD00F038
:1038400003F81CBD0004024008B54FF440214FF0BE
:103850000060FDF7B1FD4FF4E060FDF7A3FD1C2013
:103860008DF8000001208DF801008DF802008DF820
:1038700003006846FDF762FD01210846FDF702FEE0
:1038800008BD000010B501218C072046FEF7FAFBA9
:10389000002809D001212046FEF70EFB06490A68E0
:1038A0001AB10868401E086010BD2046BDE81040EF
:1038B0000021FEF704BB00003C0000200121FCF7C2
:1038C000B5BC0221FCF7B2BC3EB504460025002081
:1038D000029001900090217AE068012919D0C16816
:1038E00041F040010291C160204600F09BF84FF486
:1038F00034100190607A10B14FF474100190E168B7
:10390000019888631420FFF7D9FFE078012824D0BC
:103910002CE0816B21F480310191627A12B141F483
:103920008011019101998163E068C16821F0400133
:1039300041F4801121F4800121F4003121F40021AF
:103940000291C160204600F06DF8E0780128DCD1DA
:103950002A200090E1688860D7E7E068816821F05C
:103960001E010A3141F020010091816028463EBDD0
:10397000FEB5044600270025002602960196009613
:103980002046FFF71FFFD4F80C010660207A0128BB
:103990000FD00121204600F093FA204600F0C7FA2C
:1039A0006069016821F0040100910160E07A28B1AA
:1039B0001AE00021204600F083FAEEE7E1684FF4B8
:1039C00000704862ADF808004010ADF80A00E268E7
:1039D000029991624FF44071ADF80410ADF8060001
:1039E000E1680198C1F800011021204600F0CCF8F0
:1039F000204600F0ABF84FF0FF3107E004EB850004
:103A000050F8902F91600068C6606D1C2078A84225
:103A1000F4D80121204600F03BF8204600F072F86F
:103A20003846FEBDF8B5054600270024002000906A
:103A3000124E0320FFF745FFE86800690090641C00
:103A4000B44201D90020F8BD00980028F1DA002125
:103A5000009840F0010000900098EA681061E86862
:103A600002690092491CB14202D8009AD207F7D1EC
:103A70000320FFF726FF3846F8BD0000400D030085
:103A80000022C068816821F0010181601046704702
:103A900038B504460D4629462046FFF799FE2046D4
:103AA00000F026FA0090C10407D4012D05D140F49E
:103AB00080500090D4F8CC1008600098C10406D55E
:103AC0002DB920F480500090D4F8CC100860BDE8E7
:103AD0003840C820FFF7F2BEC2684FF0FF31516096
:103AE000C2686FF0804151610149C06881617047CF
:103AF000000800800022C068816841F001018160F7
:103B00001046704738B50446002500200090E16853
:103B10008861E168401E48612046FFF7DDFFE078DC
:103B200008B910200090009840F0807040F00070BC
:103B300040F0005040F0080040F40010E1688A694D
:103B4000824302438A61284638BD000038B500250B
:103B5000002100220092009A42F010020092009A86
:103B6000C3681A61074BC26814690094491C9942E2
:103B700002D8009CE006F7D40320FFF7A2FE2846F7
:103B800038BD0000400D030038B500250022002399
:103B90000093009B43F020030093009B61F38A1382
:103BA00000930099C3681961074BC1680C690094C0
:103BB000521C9A4202D8009CA006F7D40320FFF7BB
:103BC00080FE284638BD0000400D0300C0684069F3
:103BD00000F00100704710B5034600204FF000428E
:103BE000012464F3DC4203EB810151F8903F1A6138
:103BF00009680A6842F0004222F080420A6010BD63
:103C000010B586B0002300220392019200EB8101DF
:103C1000D1F89020116841F0004141F080410091BD
:103C200011F4402F0BD0C1F38144022C07D040691E
:103C300000690190019810F47F0F0BD00DE0C0686F
:103C4000C06A0390039810F47F0F06D121F0004062
:103C5000009002E021F0004000900098106006B053
:103C6000184610BDFFB50026002502950395019565
:103C70006A1E009200EB8104D4F890309A60C278FA
:103C8000012A01D10422039200EB411292F8B133D0
:103C900033B1012B36D0022B02D0032B42D11CE0D2
:103CA000039B43F0010343F0080343F0800343F414
:103CB000806343F01003039392F8AE731FB143F493
:103CC000807303932EE043F04003039392F8B073A4
:103CD00047B343F02003039324E0039B43F0010325
:103CE00043F0100343F0080343F0800343F4806380
:103CF00043F40073039392F8AE739FB143F480735F
:103D000003930FE0039B43F0010343F4007343F07C
:103D10002003039392F8AE7327B143F0800343F47A
:103D200080730393D4F89070039BFB6001238B4056
:103D300041698F691F438F614FF000710291C06824
:103D4000816941F00071816192F8AC0360F39C5588
:103D500092F8AD0360F3CE2592F8AE0360F3CF3551
:103D6000019592F8AF0302280DD025F4003092F8A7
:103D7000B11361F39340B2F8B22362F30A000190E9
:103D8000032903D005E045F40030F0E740F000508F
:103D90000190D4F890100198086004B03046F0BD4E
:103DA000F0B588B0054600264FF4807C00220692CC
:103DB0000792009205EB4114D4F8BC73002F0DD08C
:103DC000B4F8B233F818401EB0FBF3F080B260458F
:103DD00005D960461B02C4F8BC3300E0012094F80A
:103DE000AE3323B1B4F8B2334343C4F8BC33D4F890
:103DF000BC3363F3120260F3DC4294F8B40360F363
:103E00005E72069205EB8103D3F890000261E878B8
:103E1000012804D1D3F89020D4F8B803506153F8A6
:103E2000900F0268284600F051F860F35D7242F08E
:103E3000004020F0804007901A681060E878E0BBEE
:103E400094F8AE03C8BBD4F8BC33B3B394F8B10351
:103E500030B1012815D0022802D0032823D110E068
:103E6000E868C26A0392DB1CC3F38F02039B9BB218
:103E7000934218D220220092826942F0200282618D
:103E800011E0686900690190DB1CC3F38F00019A9F
:103E900092B2824207D24FF080600090E868826957
:103EA00042F080628261B4F8BC030A4683B2D4F85F
:103EB000B8030146284600F0B7FF08B03046F0BD11
:103EC0004069026861F301020260704740698068DE
:103ED00040F30000401C704700B5FFF777FE012853
:103EE00000D0002000BDC06841698069084070476B
:103EF000D0F8CC00006820F0040020F0020020F090
:103F0000080020F02000704740694069704710B5F4
:103F1000044608460021D21C9308D4F8D02003E0C0
:103F2000146840F8044B491C9942F9D310BD70B590
:103F300005462846FFF7DCFF40F4807455F8CC0FA7
:103F400004600A20FFF7BAFC24F480702968086036
:103F50001420FFF7B3FC012070BD000070B50022F3
:103F600000250024C4700123837040268680022629
:103F7000012901D059B115E04FF0A042C3720821C8
:103F80000170042141709115C18006720AE0234A34
:103F9000C4720C210170062141704FF4A061C180F0
:103FA0000672C370C26002F50061016100210AE07F
:103FB00002EB411300EB810403F51066A66103F5E3
:103FC00030636365491C43788B42F1D802F5806108
:103FD00041614031C0F8CC10002108E002EB4113F0
:103FE00000EB810403F5A063C4F89030491C03780A
:103FF0008B42F3D8002108E002EB013300EB81048F
:1040000003F58053C4F8D030491C03788B42F3D8B1
:1040100002F56062C0F80C21284670BD0000044023
:1040200038B50024C368D86820F0005020F08042E2
:104030000092012901D021B106E042F00050009029
:1040400002E042F0804000900098D8603220FFF7F4
:1040500035FC204638BD000038B5044600200090ED
:1040600007480068816820468847009820F0005083
:1040700000F1005000900098E1684861012038BDCF
:10408000980000200CB50146D1F89000006800901F
:10409000009820F0004000F100400090009820F0CF
:1040A000804000F180400090009AD1F890000260BA
:1040B00000200190019820F4001000F500100190FC
:1040C0000198CA68506101200CBD7CB505460024EA
:1040D00000262846FFF718FF019000BF1BE001985B
:1040E00080B20121A1400840A0B105F1900050F834
:1040F0002400006800900098C0F3C03028B1214629
:10410000284600F00DF8064304E02146284600F05A
:104110001CFA0643641C2878A042E0D830467CBDD7
:1041200070B586B005460C4605F1900050F8246045
:10413000B0680590F0680490DDE90410084005902F
:1041400005F1900050F824000068039000200490CE
:104150000598C0F38000D0B100200190019820F0B4
:104160000400001D01900198B06005F1900050F826
:104170002400C0680190019820F00200801C01908A
:1041800005F1900050F824000199C16073E0059892
:10419000C0F3401048B100200190019820F02000A9
:1041A000203001900198B06065E00598C0F3C00030
:1041B00078B305F1900050F82400C0680190019890
:1041C00020F00200801C019005F1900050F82400BE
:1041D0000199C160052105F563700155002001902A
:1041E000019820F01000103001900198B06000207C
:1041F0000190019820F00800083001900198B0600B
:10420000059820F010000590E1B22846FFF7F8FC71
:1042100031E0FFE70598C0F3802060B305F190001E
:1042200050F82400C0680190019820F00200801C22
:10423000019005F1900050F824000199C160E1B2AD
:104240002846FFF7DDFC00200190019820F01000C7
:10425000103001900198B060082105F56370015598
:1042600000200190019820F4806000F580600190AA
:104270000198B06000BF0598C0F34020F8B105F187
:10428000900050F82400C0680190019820F00200CE
:10429000801C019005F1900050F824000199C16044
:1042A000E1B22846FFF7ACFC00200190019820F411
:1042B000007000F5007001900198B06042E105982F
:1042C00000F00100002871D0E878012812D105F132
:1042D000900050F824000069029005F56B7000EB27
:1042E000441000690299C1F31201411A05F5547096
:1042F00040F82410012105F563700155002178383C
:1043000040F8241000200190019820F00100401C8A
:1043100001900198B0600398C0F3814020B10398E8
:10432000C0F3814002282AD105F1900050F8240002
:10433000C0680190019820F00200801C019005F1F6
:10434000900050F824000199C160E1B22846FFF7BF
:1043500057FC00200190019820F0100010300190CF
:104360000198B06005F56B7000EB4410007E80F0A2
:10437000010105F56B7000EB44100176E2E0039853
:10438000C0F38140032899D1039820F0005000F138
:104390000050039005F1900050F82400039901604B
:1043A000012105F29B300155CCE0FFE70598C0F3F1
:1043B0004000002851D005F1900050F82400C0685A
:1043C0000190019820F00200019005F1900050F852
:1043D00024000199C16005F56370005D012804D1D6
:1043E000012105F29B3001552DE005F56370005D5C
:1043F000052804D1042105F29B30015523E005F581
:104400006370005D062804D005F56370005D082820
:1044100008D1002105F5457040F8241003218730AC
:10442000015510E00398C0F3814003280BD105F536
:104430006B7000EB4410007E80F0010105F56B709D
:1044400000EB4410017600200190019820F002005A
:10445000801C01900198B06074E00598C0F3C01012
:1044600040B305F1900050F82400C0680190019815
:1044700020F00200801C019005F1900050F824000B
:104480000199C16005F5457050F82410491C40F8A9
:104490002410062178300155E1B22846FFF7B0FB21
:1044A00000200190019820F0800080300190019858
:1044B000B06047E00598C0F30010E8B30398C0F37C
:1044C0008140032815D105F1900050F82400C06800
:1044D0000190019820F00200801C019005F19000ED
:1044E00050F824000199C160E1B22846FFF788FB2B
:1044F00018E00398C0F3814020B10398C0F38140D5
:1045000002280FD1039820F0004000F100400390F2
:10451000039820F08040039005F1900050F82400AB
:1045200003990160032105F5637001550020019096
:10453000019820F0100000E004E010300190019894
:10454000B06000BF012006B070BD7FB505460C46C7
:1045500005F1900050F82460B0680390F068029074
:10456000DDE902100840039005F1900050F82400A6
:10457000006801900398C0F38000D0B10020009043
:10458000009820F00400001D00900098B06005F134
:10459000900050F82400C0680090009820F00200BD
:1045A000801C009005F1900050F824000099C16033
:1045B000B0E10398C0F3401048B10020009000988B
:1045C00020F02000203000900098B060A2E1039815
:1045D000C0F34020F8B105F1900050F82400C06805
:1045E0000090009820F00200801C009005F19000DF
:1045F00050F824000099C160E1B22846FFF700FBA3
:1046000000200090009820F4007000F500700090E9
:104610000098B0607EE1039800F0010038B30021FB
:1046200005F5457040F8241005F1900050F824007D
:10463000C0680090009820F00200801C009005F1F6
:10464000900050F824000099C160E1B22846FFF7BD
:10465000D7FA00200090009820F00100401C009044
:104660000098B060012105F56370015552E103988F
:10467000C0F3C00010B300200090009820F00800A4
:10468000083000900098B06005F1900050F82400C8
:10469000C0680090009820F00200801C009005F196
:1046A000900050F824000099C160E1B22846FFF75D
:1046B000A7FA052105F5637001552BE10398C0F3B6
:1046C000001038B3002105F5457040F8241005F1BD
:1046D000900050F82400C0680090009820F002007C
:1046E000801C009005F1900050F824000099C160F2
:1046F000E1B22846FFF784FA00200090009820F0ED
:104700001000103000900098B060032105F5637030
:104710000155FFE00398C0F3C01040B305F19000CD
:1047200050F82400C0680090009820F00200801C1F
:10473000009005F1900050F824000099C160E1B2AA
:104740002846FFF75DFA05F5457050F82410491C1E
:1047500040F8241006217830015500200090009880
:1047600020F08000803000900098B060D2E0039884
:10477000C0F3801038B3002105F5457040F82410CF
:1047800005F1900050F82400C0680090009820F0D7
:104790000200801C009005F1900050F82400009960
:1047A000C160E1B22846FFF72BFA00200090009884
:1047B00020F04000403000900098B060042105F5E2
:1047C00063700155A6E00398C0F3802060B305F143
:1047D000900050F82400C0680090009820F002007B
:1047E000801C009005F1900050F824000099C160F1
:1047F000E1B22846FFF704FA00200090009820F06C
:104800001000103000900098B060082105F563702A
:10481000015500200090009820F4806000F5806031
:1048200000900098B06075E00398C0F34000002845
:1048300070D005F1900050F82400C06800900098F6
:1048400020F00200009005F1900050F8240000993B
:10485000C16005F56370005D012815D1012105F2E5
:104860009B3001550198C0F38140022848D105F5DD
:104870006B7000EB4410407E80F0010105F56B7019
:1048800000EB441041763BE005F56370005D0328C2
:1048900004D1022105F29B30015531E005F563702A
:1048A000005D04280FD105F56B7000EB4410007912
:1048B000012803D1E1B22846FFF78DF9022105F264
:1048C0009B3001551CE005F56370005D052804D19F
:1048D000042105F29B30015512E005F56370005D7F
:1048E00006280DD105F5457050F82400032807D19E
:1048F000032105F29B3001550021873840F8241030
:1049000000200090009820F00200801C0090009889
:10491000B06000BF012004B070BD7FB50446E06800
:10492000C06A00900198C0F3C30104F56B7000EBFE
:1049300041100069C01CC0F38F0673E04FF6FF7191
:10494000009801EA80050198C0F3C30104F56B707B
:1049500000EB41100069A84215D20198C0F3C301D1
:1049600004F56B7000EB4110008A85B200200390C3
:10497000039820F0200020300390E06880690399BC
:104980008843E16888610198C0F3C30104F56B7046
:1049900000EB41100069C01CC0F38F060198C0F302
:1049A000C302C0F3C30304F56B7000EB43102B4646
:1049B000C168204600F038FA0198C0F3C30104F53D
:1049C0006B7000EB4110C06841190198C0F3C3023D
:1049D00004F56B7000EB4210C1600198C0F3C30195
:1049E00004F56B7000EB41100069411B0198C0F3A6
:1049F000C30204F56B7000EB421001610198C0F333
:104A0000C30104F56B7000EB411040694119019836
:104A1000C0F3C30204F56B7000EB42104161E06823
:104A2000C06A0090009880B2B0420ADD0198C0F3DD
:104A3000C30104F56B7000EB4110006900287FF49E
:104A40007DAF012004B070BDFEB5044600260025F0
:104A50000020009002900190D4F8CC0000680290F1
:104A6000D4F8CC0000680190019820F00400019077
:104A7000019820F002000190019820F008000190B8
:104A8000019820F0200001900298C0F3400058B136
:104A9000019820F00200801C0190324800684168B3
:104AA0002046884745F001050298C0F3C000002861
:104AB00042D0019820F00800083001900298C0F31D
:104AC0008000002838D02748006841682046884781
:104AD0000298C0F34140022804D00298C0F341403C
:104AE000012828D16069006800900298C0F3414015
:104AF000022811D141F2707160694160009800F0A4
:104B00000300022818D0207A022803D1022120466F
:104B1000FFF7D6F901260FE04BF68031606941605E
:104B2000009800F00300012806D001212046FFF77D
:104B3000C7F9012600E001260298C0F3401030B109
:104B4000019820F020002030019045F0010516B1B9
:104B50002046FFF7ECF90199D4F8CC000160284613
:104B6000FEBD000098000020FEB5044660690069A3
:104B700000900198C0F3C30104F56B7000EB411085
:104B80000069C01CC0F38F0674E04FF6FF710098F7
:104B900001EA80050198C0F3C30104F56B7000EBD6
:104BA00041100069A84216D20198C0F3C30104F570
:104BB0006B7000EB4110008A85B2002002900298D1
:104BC00020F0806000F180600290E06880690299C6
:104BD0008843E16888610198C0F3C30104F56B70F4
:104BE00000EB41100069C01CC0F38F060198C0F3B0
:104BF000C302C0F3C30304F56B7000EB43102B46F4
:104C0000C168204600F010F90198C0F3C30104F513
:104C10006B7000EB4110C06841190198C0F3C302EA
:104C200004F56B7000EB4210C1600198C0F3C30142
:104C300004F56B7000EB41100069411B0198C0F353
:104C4000C30204F56B7000EB421001610198C0F3E0
:104C5000C30104F56B7000EB4110406941190198E4
:104C6000C0F3C30204F56B7000EB42104161606950
:104C700000690090009880B2B0420ADD0198C0F34C
:104C8000C30104F56B7000EB4110006900287FF44C
:104C90007CAF0120FEBD30B585B0044600200090F9
:104CA0000390039820F0100010300390E0688069B2
:104CB00003998843E1688861E068006A0490049879
:104CC00000F00F00009004F190009DF8001050F8E3
:104CD0002100006801900498C0F34340022806D0E8
:104CE000032878D0052877D0072873D175E0049879
:104CF000C0F30A10002869DD04F56B709DF8001000
:104D000000EB4110C068002860D00498C0F30A127C
:104D100004F56B709DF8003000EB4310C16820462D
:104D2000FFF7F5F8049800F00F0104F56B7000EB45
:104D30004110C0680499C1F30A110144049800F0BD
:104D40000F0204F56B7000EB4210C160049800F094
:104D50000F0104F56B7000EB411040690499C1F339
:104D60000A110144049800F00F0204F56B7000EB87
:104D70004210416104F56B709DF8001000EB41108A
:104D8000456904F554709DF8001040F8215004F175
:104D900090009DF8001050F82100006902900298E0
:104DA000C0F3C940002811DD019820F0004000F157
:104DB00000400190019820F08040019004F19000A3
:104DC0009DF80020019950F82200016006E002E001
:104DD00002E0FFE700BF00BF00BF00BF00BF0398B5
:104DE00020F0100010300390E068806903990843B8
:104DF000E1688861012005B030BD000038B5044687
:104E00000020009007480068016820468847009805
:104E100020F00800083000900098E1684861012007
:104E200038BD00009800002030B505460020EC7821
:104E3000002C0CD1DB1C9B0805EB8202D2F8D020A1
:104E400003E051F8045B1560641C9C42F9D330BD4B
:104E5000FEE710B50446084611462246FCF7BCF8AA
:104E6000102010BD2DE9F84306460C46154699461C
:104E700000204FF4F0784FF488772A78002A3DD04C
:104E8000304486B2802A14D906F11000404505D975
:104E900000261034A4B2BC4200D90024284600F0F9
:104EA00073FE80B24B4622463146FFF7D2FFAD1C5F
:104EB000E3E70D2A16D00A2A1CD006F10800404567
:104EC00005D900260834A4B2BC4200D900240C48FD
:104ED00041680091036821463046FCF77EFA6D1C5C
:104EE0000A20CAE71034A4B2BC4200D900246D1CC9
:104EF0000020C2E700266D1C0020BEE7BDE8F88355
:104F00002400002002E008C8121F08C1002AFAD1BC
:104F100070477047002001E001C1121F002AFBD139
:104F20007047000010B5044600202071401EE0626A
:104F3000204601F01FFA08B1032010BD94F82E029C
:104F400094F82F1240EA0120A0F52A41553901D0EA
:104F5000022010BD14F8660FE178627840EA016122
:104F6000A078663C000440EA022001430B48B0EB05
:104F7000012F01D1002010BD14F8821FE278637860
:104F800041EA0261A278120442EA03221143B0EB23
:104F9000012F01D1002010BD012010BD0046415459
:104FA00000E0401C02780AB18A42FAD100787047CA
:104FB000891E4269921E8A4201D800207047826A87
:104FC000807801FB002070472DE9F05F81460F4695
:104FD000387820F04000401E00EB800101EBC00457
:104FE00000260125DFF85CA007F101084FF6FF7BE2
:104FF0001AF80600395C10F8080041EA00207DB17B
:1050000000F0ACFD0546FF2C07D22046641C39F8A1
:10501000100000F0A3FDA84206D00020BDE8F09FDC
:10502000584501D00020F9E7761C0D2EE0D33878E2
:10503000400605D525B139F8140008B10020EDE788
:105040000120EBE76A970C082DE9F04106460F4670
:10505000002F08D03946304601F00CF8022809D25A
:105060000120BDE8F081F56815B17069A84207D844
:10507000012505E0411CF4D071698142F1D83D461B
:105080002C46641C7069A04204D80224022D01D26F
:105090000020E6E72146304600F0ECFF38B1411C25
:1050A000DFD00128DDD0AC42EBD10020D9E76FF092
:1050B00070422146304601F077F928B927B12246DF
:1050C0003946304601F070F920B101280DD0012495
:1050D0002046C6E7F4603069411CF9D0401E3061BB
:1050E000707940F001007071F2E74FF0FF34EFE7A4
:1050F0002DE9F35F8846D8F8006000E0761C307830
:105100002F28FBD05C28F9D00098D0F81CA00024F0
:10511000254628466D1C305C202808D32F2806D051
:105120005C2804D0FF2C09D30620BDE8FC9F711930
:10513000C8F8001020282AD2042532E0C0B2A0F11D
:1051400081017D290ED829466D1C715CA1F14002B8
:105150003F2A04D3403A7F2A01D30620E5E701EB3A
:10516000002080B2012100F0CDFC074647B1802F1E
:1051700008D2394665A0FFF713FF18B10620D4E71F
:105180000620D2E72046641C2AF81070C1E70025EB
:1051900007E0601E3AF81000202801D02E2802D126
:1051A000641E002CF5D154B100202AF81400009898
:1051B0000B222021806901F0D5F8002702E00620AB
:1051C000B3E77F1C3AF817002028FAD02E28F8D031
:1051D0001FB145F0030500E0641E24B1601E3AF8DB
:1051E00010002E28F8D14FF00008C1464FF0080BF0
:1051F00038467F1C3AF8106006B3202E03D02E2EBE
:1052000004D1A74202D045F00305F1E7D84501D209
:10521000A74219D1BBF10B0F0ED0A74201D045F028
:1052200003050BD827464FF008084FF00B0B4FEA49
:1052300089604FEA1069DBE745F003050098806953
:105240000178E5293DD03EE0802E08D3304600F0BD
:1052500085FC002100F056FC064645F00205FF2EB5
:105260000FD9ABF10100804503D345F00305D846C3
:10527000BEE70098310A8269404608F101081154DE
:1052800018E026B1314624A0FFF78AFE18B15F2648
:1052900045F003050EE0A6F14100192802D849F0B7
:1052A000020907E0A6F16100192803D849F00109B5
:1052B000203EB6B200988169404608F101080E54BC
:1052C00096E705210170BBF1080F03D14FEA896011
:1052D0004FEA1069C9F38100032803D06FEA09017E
:1052E000890701D145F00205A90709D409F0030196
:1052F000012901D145F01005012801D145F008052B
:1053000000988069C57200200FE70000222A3A3C0D
:105310003E3F7C7F000000002B2C3B3D5B5D00008E
:1053200070B505460E460021284600F08AF988B976
:1053300000242969286801F01DF858B969690978BD
:10534000E5290BD051B100240121284600F06DF869
:105350000028EED0042800D1072070BD641CB442A0
:10536000F8D0F1E72DE9F04704460021204600F08F
:1053700068F9002857D1FF26B1464FF6FF7AA4F806
:1053800020A02169206800F0F5FF80465FEA080050
:1053900048D167693D7865B1F87A00F03F00E52DA6
:1053A00003D0010708D50F2806D0FF26A4F820A0B7
:1053B00030E04FF0040835E00F2801D0CEB11DE0F9
:1053C000E06938B3690606D597F80D9025F04005D9
:1053D0002E46E1882184B54208D1797B494505D123
:1053E0003946FFF7F1FD08B1761E00E0FF26F6B260
:1053F00010E0384601F0A9F8484513D0A169C87AF1
:10540000C00704D10B22384600F096FF50B1FF26AA
:10541000A4F820A00021204600F007F880465FEAAB
:105420000800AED04046BDE8F0872DE9F0410446C3
:105430000E46E7887F1C3804000C0AD0216941B170
:10544000206842895209B7FBF2F302FB13721AB1CA
:1054500066E00420BDE8F081491C2161E16871B17A
:10546000428983785209B7FBF2F25B1E1A4257D188
:1054700000F000FE0546012D06D80220EAE700896B
:10548000B8424DD80420E5E7681C14D02068416973
:10549000A9423FD88EB1E168FFF7D6FD0546280046
:1054A0000DD0012D0DD0681C0DD0206801F05AF8E8
:1054B00058B10120CEE70120CCE70420CAE707203D
:1054C000C8E70220C6E70120C4E72068002142891E
:1054D000303000F047FF29462068FFF769FD21685A
:1054E000C86200264FF001080CE080F804802068B4
:1054F00001F038F808B10120ACE72068C16A491C06
:10550000C162761C20688178B142EED82168C96AF0
:10551000891BC162E56029462068FFF749FD2061CB
:10552000E780206841894909B7FBF1F201FB12715C
:10553000302202EB41110844606100208AE72DE926
:10554000FE430446A769E6690C223946684600F026
:1055500000FF9DF80B00C00718D00020F872E06132
:1055600001252B4632466946384600F037FD204675
:10557000FFF7F8FE10B96D1C642DF2D3642D0BD02B
:1055800004280AD19DF80B00F872E6619DF80B0023
:1055900080070ED5002003E00720BDE8FE83401CF5
:1055A00036F810100029FAD119300D21B0FBF1F6B0
:1055B00000E0012631462046FFF7B2FE05460127EE
:1055C0001DBB761E21D0E088811B204600F039F8F3
:1055D0000546280019D1A06900F0B7FF804621696F
:1055E000206800F0C7FE05467DB9F2B24346616906
:1055F000E06900F087FC2068077100212046FFF772
:1056000014FF05460DB9761EE9D1C5B92169206898
:1056100000F0B0FE0546280011D12022002160696B
:1056200000F0A0FED4E905010B2200F092FEA06973
:105630006169C07A00F01800087320680771284675
:10564000ABE770B504460D46E580A368012B03D097
:1056500020684169994201D8022070BD1BB90178C8
:10566000032900D1436A2BB141898078490911FB94
:1056700000F618E00189A94201D8022070BD406AF5
:1056800017E01946206800F0F5FC0346581C07D0C7
:10569000022B03D320684069984203D8022070BDD2
:1056A000012070BDAD1BB542EBD219462068FFF753
:1056B0007FFCE36098B121684A895209B5FBF2F298
:1056C0001044206148894009B5FBF0F200FB1250FC
:1056D000302202EB401008446061002070BD0220BF
:1056E00070BD000010B501240348FBF7B3F900B109
:1056F0000024204610BD000024290020002909D0E4
:10570000012909D04FF4007002290AD003290BD0D7
:105710000420704700207047054800681060002092
:105720007047108000207047106000207047000014
:10573000A03300202DE9F0470F4690461E46002476
:1057400000251248FBF786F9D0B14FEA46294FF4FD
:1057500080360F490D48FDF7EFF94B464246394672
:105760000A48FDF7F1FB05460848FBF773F938B125
:105770002046641CB04201D3012501E0032DE8D08E
:1057800015B10120BDE8F0870020FBE724290020A7
:10579000D02E0020002070472DE9F0410E4617461C
:1057A0001D4600240D48FBF755F988B16D022B46C4
:1057B0003A4631460948FDF715FD044608490748B1
:1057C000FDF7BAF90548FBF745F908B1032CEED00F
:1057D00014B10120BDE8F0810020FBE7242900205E
:1057E000D02E002017B581B014460298009068466C
:1057F00000F0E2FC002802DA0B2004B010BD0B4BD5
:1058000053F82010002201B10A700199002900D03C
:105810000A7043F8201001D0012C01D00020ECE7E1
:10582000002202A901A800F0C9F9E6E7B03500207E
:105830002DE9F747ADF50D7D0646002E0FD04FF050
:105840000008C6F8008002F01F0727F001028EA9A9
:1058500084A800F0B3F90546280005D092E009209D
:105860000DF5107DBDE8F08781A88A9001A88B9086
:1058700084A88E9900F07CFB0546899C0DB904B97B
:10588000062517F01C0F4DD04DB1042D03D184A86F
:10589000FFF755FE054647F00807899C08E0E07AC7
:1058A00010F0110F01D0072502E0780700D5082578
:1058B000BDBB380741D500F05DFCA073010AE17360
:1058C000010C2174000E607484F80B8084F81C8035
:1058D00084F81D8084F81E8084F81F8021468498F7
:1058E00000F08BFC81460021204600F026FE8499C2
:1058F00001200871B9F1000F1FD08498D0F82CA0B6
:105900004946849800F0E6FD0546280015D18498A4
:10591000A9F10109C0F80C905146849800F02AFDC5
:1059200005460AE04DB9E07AC10601D5042504E038
:10593000B90702D5C00700D007253DB9380701D502
:1059400047F020078498C06AF0613462D5B9B77116
:1059500086F807802146849800F04FFC3061207F54
:10596000E17F627F40EA0160A17F090441EA0221F0
:105970000843F060C6F80880C6F818808498306044
:10598000C088B08028466BE72DE9F84F044688466A
:10599000164699460020C9F80000204600F00CFE8B
:1059A000002812D1E07900280FD1A079C0070BD0D0
:1059B000D4E90210401A864200D9064604F12400B8
:1059C0004FF0010A009098E00720BDE8F88F2268A8
:1059D000A0685189B0FBF1F301FB1303002B6DD1DB
:1059E000B0FBF1F193785B1E1940CDB275B940B1AF
:1059F0001046616900F03EFB022804D20220E071EB
:105A0000E3E72069F8E7411C1CD060616169206808
:105A1000FFF7CEFAD0B100EB050B20684189B6FB49
:105A2000F1F74FB38178EA198A4200D94F1B4078C9
:105A30003B465A464146FFF77DFE50B184F807A029
:105A40000120C2E784F807A00120BEE70220E07130
:105A5000BBE7A07940060BD5A069A0EB0B00B842CC
:105A600006D221684A89009900FB028000F071FC8F
:105A7000206845897D4336E0A2695A451CD0A1794A
:105A800049060DD5407801230099FFF785FE18B12E
:105A900084F807A0012098E7A07920F04000A071C9
:105AA000206801235A4640780099FFF743FE18B159
:105AB00084F807A0012088E7C4F818B02068A1681E
:105AC0004089B1FBF0F200FB1212851AB54200D9F1
:105AD0003546B1FBF0F200FB1210011924312A46C1
